:020000040800F2
:1000000000A00020110300082F1400083D14000870
:100010005F1400086F1400087F140008000000003F
:100020000000000000000000000000008F14000825
:100030009D14000800000000AB140008B91400086B
:100040008901000889010008890100088901000868
:100050008901000889010008E514000889010008E9
:100060008901000889010008890100088901000848
:100070008901000889010008890100088901000838
:100080008901000889010008890100088901000828
:100090007D15000889010008890100088901000810
:1000A0008901000889010008890100088901000808
:1000B0008901000889010008717B00088901000896
:1000C00089010008890100088901000889010008E8
:1000D000890100088901000871530008890100089E
:1000E00089010008890100088915000889010008B4
:1000F00089010008890100088901000889010008B8
:10010000000000000000000000000000890100085D
:100110008901000889010008890100088901000897
:100120008901000889010008890100088901000887
:10013000890100088901000800000000000000009B
:1001400089010008890100088901000800000000F9
:10015000000000000000000000000000000000009F
:10016000000000000000000089010008890100086B
:1001700089010008000000000000000000000000ED
:10018000000000008901000880B400AF00BEFEE757
:1001900080B58EB000AF02F027FC4B4B4B4A1A6083
:1001A0004B4B4A4A1A604B4B3B634B4BFB624B4BEE
:1001B000BB62FB6A7B6207E03A6B131D3B637B6AA1
:1001C000191D796212681A60BA6A7B6A9A42F3D87A
:1001D00000BF3D4B1B68424A934204D13C4B1B6815
:1001E000404A934200D0FEE73F4B384A1A603F4BEB
:1001F000364A1A603E4B3B623E4BFB613B6ABB6139
:1002000004E0BB691A1DBA6100221A60FA69BB6971
:100210009A42F6D800BF344B1B68002B03D1334BF6
:100220001B68002B00D0FEE702F0EEFB3A463B1DB8
:100230001146184602F0C4FB2F4A304BD31A9B10CC
:10024000FB600023BB6007E02C4ABB6852F82330F8
:100250009847BB680133BB60FA68BB689A42F3DC1D
:10026000274A284BD31A9B10FB600023BB6007E092
:10027000244ABB6852F823309847BB680133BB60FF
:10028000FA68BB689A42F3DC00BF7B683A681146A3
:10029000184607F091FA78631B4A1C4BD31A9B103F
:1002A0007B617B693B6108E03B69013B174A52F87F
:1002B000233098473B69013B3B613B69002BF3DCF2
:1002C00000BF786B02F076FB00000020BABADECAED
:1002D000A005002038AC000800000020A405002084
:1002E0007856341232547698A40500203420002029
:1002F000A405002038200020F0030008F0030008C7
:10030000FC030008F0030008FC030008FC030008DD
:1003100080B500AFFFF73CFF80B400AF00BEFEE742
:100320001EF0040F0CBFEFF30880EFF30980714655
:10033000224A104700BF80B483B000AF78603960B4
:1003400000BEFEE780B400AF00BEFEE71EF0040F63
:100350000CBFEFF30880EFF309807146184A10478D
:1003600000BF80B483B000AF7860396000BEFEE7A4
:100370001EF0040F0CBFEFF30880EFF30980714605
:10038000104A104700BF80B483B000AF7860396076
:1003900000BEFEE780B400AF00BEFEE780B400AF51
:1003A00000BEFEE780B400AF00BEFEE780B400AF41
:1003B00000BFBD465DF8047B7047000037030008AE
:0803C000630300088703000835
:1003C80038AC000800000020A405002038AC000864
:1003D8000000001000000010A405002038200020B4
:1003E80000000010000000101151000859540008C6
:0403F800AD7C0008D0
:1004000080B594B000AF786039600023FB640023AE
:10041000BB6400237B647B681B6823F001027B685C
:100420001A607B685B687B647B6C23F440537B645D
:100430003B689B687A6C13437B647B687A6C5A6078
:100440007B681B687B647B6C23F4B05323F00C0344
:100450007B643B685A683B68DB681A433B681B69EE
:1004600013437A6C13437B647B687A6C1A607B68F5
:100470009B687B647B6C23F440737B643B685B69A3
:100480007A6C13437B647B687A6C9A6007F108038B
:10049000184600F01DFB7B68334A934202D13B6B48
:1004A000BB6416E07B68314A934202D17B6BBB642C
:1004B0000FE07B682E4A934202D1BB6BBB6408E01D
:1004C0007B682C4A934202D1FB6BBB6401E03B6C1E
:1004D000BB647B681B6803F40043002B11D0BB6C2A
:1004E0005A003B681B68B2FBF3F3FB64BB6C5B0018
:1004F0003A681268B3FBF2F101FB02F29B1A7B64CB
:100500000EE03B681B68BA6CB2FBF3F3FB643B681C
:100510001A68BB6CB3FBF2F101FB02F29B1A7B641D
:100520003B681B685B087A6C9A4202D3FB6C013310
:10053000FB647B681B6803F40043002B0BD0FB6C4F
:100540005B0803F007037B64FA6C4FF6F07313400B
:100550007A6C1343FB64FB6C9AB27B689A8100BF90
:100560005037BD4680BD00BF003801400044004008
:1005700000480040004C004080B483B000AF786079
:100580000B46FB70FB78002B06D07B681B6843F0A2
:1005900001027B681A6005E07B681B6823F001029A
:1005A0007B681A6000BF0C37BD465DF8047B70475E
:1005B00080B483B000AF78600B467B807B88C3F348
:1005C00008039AB27B681A8500BF0C37BD465DF8F8
:1005D000047B704780B483B000AF78607B689B8CED
:1005E0009BB2C3F308039BB218460C37BD465DF8B7
:1005F000047B704780B483B000AF78600B46FB701B
:10060000FB78002B06D07B689B6843F480427B68B4
:100610009A6005E07B689B6823F480427B689A605F
:1006200000BF0C37BD465DF8047B704780B483B0D3
:1006300000AF786039607B681B6823F078727B6854
:100640001A607B681A683B685B051A437B681A600E
:1006500000BF0C37BD465DF8047B704780B483B0A3
:1006600000AF786039607B681B6823F4F8127B6800
:100670001A607B681A683B681B041A437B681A601F
:1006800000BF0C37BD465DF8047B704780B489B06D
:1006900000AFF860B9601346FB710023BB61002313
:1006A0007B6100233B610023FB61FB68FB61BB684E
:1006B0009BB21B0A9BB2BB61BB68DBB27B610122B0
:1006C0007B6902FA03F33B61BB69022B03D1FB692F
:1006D0000433FB6105E0BB69032B02D1FB690833DE
:1006E000FB61FB79002B06D0FB691968FB693A694D
:1006F0000A431A6006E0FB6919683B69DA43FB6943
:100700000A401A6000BF2437BD465DF8047B70477D
:1007100080B485B000AF786039600023FB737B68DC
:10072000DA693B681340002B02D00123FB7301E020
:100730000023FB73FB7B18461437BD465DF8047B32
:10074000704780B487B000AF786039600023FB60E9
:1007500000237B610023BB600023FB743B689BB2DA
:100760001B0A9BB2BB603B68DBB27B6101227B69E9
:1007700002FA03F37B61BB68012B05D17B681B6820
:100780007A6913407B610DE0BB68022B05D17B6861
:100790005B687A6913407B6104E07B689B687A69D7
:1007A00013407B613B681B0CFB600122FB6802FA73
:1007B00003F3FB607B68DB69FA681340FB607B69CD
:1007C000002B05D0FB68002B02D00123FB7401E055
:1007D0000023FB74FB7C18461C37BD465DF8047B88
:1007E000704780B485B000AF786039600023FB604B
:1007F0000023BB603B681B0CFB600122FB6802FA14
:1008000003F3BB607B68BA681A6200BF1437BD4649
:100810005DF8047B7047000080B485B000AF78605D
:1008200039600023FB817B681B88FB817B682D4A34
:1008300093420FD07B682C4A93420BD07B68B3F174
:10084000804F07D07B68294A934203D07B68284AAF
:10085000934208D1FB8923F07003FB813B685A88DF
:10086000FB891343FB817B68224A93420CD07B684F
:10087000214A934208D0FB8923F44073FB813B68F3
:100880001A89FB891343FB817B68FA891A803B68CC
:100890005A687B68DA623B681A887B681A857B68CD
:1008A000104A93420FD07B680F4A93420BD07B686B
:1008B000124A934207D07B68114A934203D07B6867
:1008C000104A934204D13B689B7A9AB27B681A869D
:1008D0007B6801225A6100BF1437BD465DF8047B76
:1008E000704700BF002C014000340140000400406C
:1008F000000800400010004000140040004001408B
:10090000004401400048014080B483B000AF7860EB
:100910007B684FF0FF325A607B6800221A807B6848
:1009200000221A817B6800225A807B6800229A721A
:1009300000BF0C37BD465DF8047B704780B483B0C0
:1009400000AF78600B46FB70FB78002B08D07B680B
:100950001B889BB243F001039AB27B681A8007E0C0
:100960007B681B889BB223F001039AB27B681A80D4
:1009700000BF0C37BD465DF8047B704780B483B080
:1009800000AF78600B467B8013467B707B78002B32
:1009900006D07B68DA687B881A437B68DA6007E0F8
:1009A0007B68DB687A88D24392B21A407B68DA604F
:1009B00000BF0C37BD465DF8047B704780B483B040
:1009C00000AF78600B467B807B88DB439BB21A4686
:1009D0007B681A6100BF0C37BD465DF8047B704729
:1009E00080B483B000AF0346FB71064B00221A703F
:1009F000044AFB79137000BF0C37BD465DF8047BD9
:100A0000704700BF0210024080B582B000AF0023E3
:100A10003B600023FB710023BB71112000F01CFB25
:100A20000346BB713B6801333B603B68B3F5A06F85
:100A300002D0BB79002BF0D0112000F00DFB034653
:100A4000002B02D00123FB7101E00023FB71FB7935
:100A500018460837BD4680BD80B483B000AF03465A
:100A6000FB71044AFB79136000BF0C37BD465DF88B
:100A7000047B70476000424280B485B000AF78606C
:100A80000023FB60094B5B68FB60FB6823F00303FA
:100A9000FB60FA687B681343FB60044AFB685360A1
:100AA00000BF1437BD465DF8047B7047001002405C
:100AB00080B400AF054B5B68DBB203F00C03DBB224
:100AC0001846BD465DF8047B704700BF0010024029
:100AD00080B48BB000AF786000233B620023FB61E1
:100AE0000023BB6100237B6100233B6100237B6209
:100AF0000023FB600023BB608B4B5B6803F00C039F
:100B00003B623B6A082B11D03B6A082B37D83B6A03
:100B1000002B03D03B6A042B04D030E07B68834A6F
:100B20001A6030E07B68814A1A602CE07E4B5B687B
:100B300003F47013FB617C4B5B6803F48033BB618F
:100B4000FB699B0C0233FB61BB69002B05D1FB6980
:100B5000774A02FB03F37B620DE0734BDB6A03F021
:100B60000F0301337B61714A7B69B2FBF3F2FB69CE
:100B700002FB03F37B627B687A6A1A6003E07B689E
:100B80006A4A1A6000BF684B5B6803F0F0033B627F
:100B90003B6A1B093B62674A3B6A13441B78DBB222
:100BA000BB607B681A68BB68DA407B685A605E4B42
:100BB0005B6803F4E0633B623B6A1B0A3B625D4A8D
:100BC0003B6A13441B78DBB23B617B685A683B6924
:100BD000DA407B689A60544B5B6803F460533B6275
:100BE0003B6ADB0A3B62534A3B6A13441B78DBB225
:100BF000FB607B685A68FB68DA407B68DA604A4BC6
:100C0000DB6A03F4F8733B623B6A1B093B624A4AA6
:100C10003B6A32F813309BB23B613B6903F010032F
:100C2000002B06D07A6A3B69B2FBF3F27B681A614B
:100C300003E07B681A687B681A613B4BDB6A03F44C
:100C400078533B623B6A5B0A3B623B4A3B6A32F841
:100C500013309BB23B613B6903F01003002B06D0BD
:100C60007A6A3B69B2FBF3F27B685A6103E07B6806
:100C70001A687B685A612C4B1B6B03F01003102B16
:100C800003D07B68294A9A6103E07B681A687B6815
:100C90009A61254B1B6B03F02003202B03D07B684C
:100CA000224ADA6103E07B681A687B68DA611E4BCE
:100CB0001B6B03F48073B3F5807F0DD17B681B68D9
:100CC0007A6A9A4208D1FA68BB689A4204D17B6A70
:100CD0005A007B681A6203E07B68DA687B681A62F4
:100CE000114B1B6B03F40073B3F5007F0DD17B68D0
:100CF0001B687A6A9A4208D1FA68BB689A4204D1A2
:100D00007B6A5A007B685A6203E07B68DA687B681A
:100D10005A62054B1B6B03F00303002B0ED17B685B
:100D2000DA687B689A6228E00010024000127A00BC
:100D300000093D0004000020140000206C4B1B6BD8
:100D400003F00303012B04D17B681A687B689A6265
:100D500013E0674B1B6B03F00303022B04D17B688A
:100D60004FF400429A6208E0614B1B6B03F00303EF
:100D7000032B02D17B685F4A9A625D4B1B6B03F4C5
:100D80004033002B04D17B689A687B68DA6221E0EB
:100D9000574B1B6B03F44033B3F5803F04D17B68A2
:100DA0001A687B68DA6215E0514B1B6B03F4403321
:100DB000B3F5003F04D17B684FF40042DA6209E0EA
:100DC0004B4B1B6B03F44033B3F5403F02D17B68C0
:100DD000484ADA62464B1B6B03F44023002B04D1D4
:100DE0007B689A687B681A6321E0414B1B6B03F4B4
:100DF0004023B3F5802F04D17B681A687B681A639F
:100E000015E03B4B1B6B03F44023B3F5002F04D1DB
:100E10007B684FF400421A6309E0354B1B6B03F407
:100E20004023B3F5402F02D17B68324A1A63304B1E
:100E30001B6B03F44013002B04D17B689A687B681A
:100E40005A6321E02A4B1B6B03F44013B3F5801F58
:100E500004D17B681A687B685A6315E0244B1B6BCE
:100E600003F44013B3F5001F04D17B684FF4004234
:100E70005A6309E01E4B1B6B03F44013B3F5401F8C
:100E800002D17B681B4A5A63194B1B6B03F4400366
:100E9000002B04D17B689A687B689A6321E0144B2D
:100EA0001B6B03F44003B3F5800F04D17B681A6811
:100EB0007B689A6315E00E4B1B6B03F44003B3F59C
:100EC000000F04D17B684FF400429A6309E0084B9D
:100ED0001B6B03F44003B3F5400F02D17B68054A56
:100EE0009A6300BF2C37BD465DF8047B704700BF96
:100EF0000010024000127A0080B483B000AF786026
:100F0000044A7B68136000BF0C37BD465DF8047B64
:100F1000704700BFD800424280B483B000AF786011
:100F20000B46FB70FB78002B06D00A4B5A69094927
:100F30007B6813434B6106E0064B5A697B68DB43D1
:100F4000044913404B6100BF0C37BD465DF8047B7C
:100F5000704700BF0010024080B483B000AF7860DB
:100F60000B46FB70FB78002B06D00A4B9A690949A7
:100F70007B6813438B6106E0064B9A697B68DB4311
:100F8000044913408B6100BF0C37BD465DF8047BFC
:100F9000704700BF0010024080B483B000AF78609B
:100FA0000B46FB70FB78002B06D00A4BDA69094927
:100FB0007B681343CB6106E0064BDA697B68DB4351
:100FC00004491340CB6100BF0C37BD465DF8047B7C
:100FD000704700BF0010024080B483B000AF78605B
:100FE0000B46FB70FB78002B06D00A4BDA680949E8
:100FF0007B681343CB6006E0064BDA687B68DB4313
:1010000004491340CB6000BF0C37BD465DF8047B3C
:10101000704700BF0010024080B483B000AF78601A
:101020000B46FB70FB78002B06D00A4B1A69094966
:101030007B6813430B6106E0064B1A697B68DB4350
:10104000044913400B6100BF0C37BD465DF8047BBB
:10105000704700BF0010024080B487B000AF034665
:10106000FB710023FB6000237B610023FB74FB7991
:101070005B09DBB2FB60FB68002B03D1164B1B68DE
:101080007B6110E0FB68012B03D1134B1B6A7B6172
:1010900009E0FB68042B03D10F4B5B687B6102E026
:1010A0000D4B5B6A7B61FB7903F01F03FB607A6980
:1010B000FB6822FA03F303F00103002B02D00123A3
:1010C000FB7401E00023FB74FB7C18461C37BD4613
:1010D0005DF8047B704700BF0010024080B483B00D
:1010E00000AF7860064A7B6843F0BF6343F4003387
:1010F000D36000BF0C37BD465DF8047B704700BF6E
:1011000000ED00E080B487B000AF786000237B6121
:1011100000233B610F23FB607B68DB78002B3AD018
:10112000284BDB68DB431B0A03F007037B617B6909
:10113000C3F104033B61FA687B6922FA03F3FB60A5
:101140007B685B781A463B6902FA03F37B617B6834
:101150009B781A46FB6813407A6913437B617B696D
:101160001B017B61184A7B681B787969C9B21344FB
:101170000A4683F800237B681B7803F01F0312499B
:101180007A6812785209D2B21046012202FA03F3A9
:1011900041F820300FE07B681B7803F01F030A49F9
:1011A0007A6812785209D2B2104601229A4000F1B0
:1011B000200341F8232000BF1C37BD465DF8047BA7
:1011C000704700BF00ED00E000E100E080B487B0B0
:1011D00000AF7860396000237B6100233B6100230E
:1011E000FB6000237B617CE001227B6902FA03F350
:1011F0003B613B681B683A691340FB60FA683B69D6
:101200009A426BD13B681B79012B03D03B681B7959
:10121000022B34D17B689A687B695B00032101FA59
:1012200003F3DB431A407B689A607B689A683B68EB
:101230005B7919467B695B0001FA03F31A437B680B
:101240009A607B689B889AB27B699BB2194601239E
:101250008B409BB2DB439BB213409AB27B689A806F
:101260007B689B889AB23B689B7919467B699BB2E5
:1012700001FA03F39BB213439AB27B689A807B68AE
:101280001A687B695B00032101FA03F3DB431A4010
:101290007B681A607B681A683B681B7919467B6912
:1012A0005B0001FA03F31A437B681A607B68DA6813
:1012B0007B699BB25B00032101FA03F3DB431A4015
:1012C0007B68DA607B68DA683B68DB7919467B69A2
:1012D0005B0001FA03F31A437B68DA607B69013330
:1012E0007B617B690F2B7FF67FAF00BF00BF1C3790
:1012F000BD465DF8047B704780B485B000AF786070
:101300000B467B800023FB737B681B8A9AB27B8829
:1013100013409BB2002B02D00123FB7301E000239A
:10132000FB73FB7B18461437BD465DF8047B7047A2
:1013300080B483B000AF78600B467B807A887B688E
:101340009A6100BF0C37BD465DF8047B704780B4DE
:1013500083B000AF78600B467B807B687A881A8503
:1013600000BF0C37BD465DF8047B704780B483B086
:1013700000AF78600B467B8013467B707B78002B38
:1013800003D07A887B689A6102E07B687A881A8544
:1013900000BF0C37BD465DF8047B704780B485B054
:1013A00000AF78600B467B8013467B700023FB60A8
:1013B0000023BB607A787B8803F007039B0002FA66
:1013C00003F3FB607B88DB089BB21A467B6808321C
:1013D00053F822207B8803F007039B000F2101FABA
:1013E00003F3DB437988C90889B2084602EA03019E
:1013F0007B6800F1080243F822107B88DB089BB26F
:101400001A467B68083253F82230FA681343BB60EF
:101410007B88DB089BB21A467B680832B96843F8C0
:10142000221000BF1437BD465DF8047B704780B4BE
:1014300000AF00BFBD465DF8047B704780B582B049
:1014400000AF06F02DFB002006F046FB1EF0040F57
:101450000CBFEFF30883EFF309837B60FEE780B5F1
:1014600000AF06F01DFB002006F036FBFEE780B55E
:1014700000AF06F015FB002006F02EFBFEE780B55E
:1014800000AF06F00DFB002006F026FBFEE780B45F
:1014900000AF00BFBD465DF8047B704780B400AF6D
:1014A00000BFBD465DF8047B704780B400AF00BF4D
:1014B000BD465DF8047B704780B500AF06F090FB39
:1014C000064B1B68013B054A1360054B1B78DBB2DA
:1014D0000133DAB2024B1A7000BF80BD6C010020EC
:1014E000E00C002080B500AF002006F0F5FA0020E7
:1014F00000F052FA0346012B37D1002000F0D4FC53
:101500000346002B31D01A4B00221A6004E0184B1E
:101510001B680133164A1360154B1B68154A93422A
:10152000F5D900BF002000F0BFFC0346002BF9D125
:101530000F4B00221A6004E00D4B1B6801330C4A6C
:1015400013600B4B1B680B4A9342F5D90A4B1B687F
:101550000133094A1360084B1B68022B02D9064B62
:1015600000221A60002000F04FFA00BF80BD00BFCB
:10157000A8050020FEFF0700E40C002080B500AFA6
:1015800001F0CAFB00BF80BD80B500AF002001F0B4
:10159000CDFD122000F038FA00BF80BD80B485B0C8
:1015A00000AF786039600023FB607B681B6823F024
:1015B00001027B681A607B681B68FB60FA68294B34
:1015C0001340FB603B685A683B689B681B021343EF
:1015D000FA681343FB607B68FA681A603B681B6813
:1015E00023F070627B681A617B681B6843F001021C
:1015F0007B681A600023FB607B68FA689A607B68EE
:10160000FA68DA603B689A693B681B691343FB60C0
:101610007B68FA689A607B689B6843F400427B6849
:101620009A603B68DB68FB607B681A68FB681A435A
:101630007B681A607B685B68FB60FB6823F078431B
:1016400023F40043FB603B685B69FA681343FB606B
:101650007B68FA685A6000BF1437BD465DF8047BAA
:10166000704700BFFFE0CF0080B483B000AF786068
:101670000B46FB70FB78002B06D07B681B6843F0A1
:1016800001027B681A6005E07B681B6823F0010299
:101690007B681A6000BF0C37BD465DF8047B70475D
:1016A00080B487B000AFF8607B600B467B81134647
:1016B0007B7200237B61FB685B687B617A690D4B01
:1016C00013407B617B89C3F309027B7A1B0403F41B
:1016D0007F031A437B681A433B6A13437A691343B7
:1016E0007B61FB687A695A6000BF1C37BD465DF8B4
:1016F000047B7047009800FC80B483B000AF786032
:101700000B46FB70FA787B689A6200BF0C37BD46C7
:101710005DF8047B704780B483B000AF78607B686D
:101720005B6ADBB218460C37BD465DF8047B704738
:1017300080B485B000AF786039600023BB600023BF
:10174000FB737B689B69BB60BA683B681340BB60F6
:10175000BB68002B02D00123FB7301E00023FB7365
:10176000FB7B18461437BD465DF8047B704780B498
:1017700083B000AF786039607B683A68DA6100BF97
:101780000C37BD465DF8047B7047000080B485B01F
:1017900000AF78600023FB607B4BFB607B689B792C
:1017A000002B00F0D2807B681B685B0903F100739B
:1017B00003F502635B0119687B681B6803F01F0374
:1017C000012202FA03F3DA437B681B685B0903F129
:1017D000007303F502635B01184601EA020303602C
:1017E0007B681B685B095A01684B134419687B6866
:1017F0001B6803F01F03012202FA03F3DA437B683C
:101800001B685B095801614B0344184601EA020357
:1018100003607B681B791A467B681B685B095B0168
:101820001344FA681344FB60FB681A687B681B6802
:1018300003F01F03012101FA03F31946FB680A4371
:101840001A60514BFB607B681B685B095A01504B67
:10185000134419687B681B6803F01F03012202FA16
:1018600003F3DA437B681B685B095801484B034468
:10187000184601EA020303607B681B685B095A0192
:10188000444B134419687B681B6803F01F03012253
:1018900002FA03F3DA437B681B685B0958013D4B8E
:1018A0000344184601EA020303607B685B79102B4E
:1018B00032D17B681B685B095A01354B13441A68A7
:1018C0007B681B6803F01F03012101FA03F318462C
:1018D0007B681B685B0959012D4B0B44194642EA92
:1018E00000030B607B681B685B095A01294B13449A
:1018F0001A687B681B6803F01F03012101FA03F3D8
:1019000018467B681B685B095901224B0B4419463A
:1019100042EA00030B6030E07B685B791A467B6823
:101920001B685B095B011344FA681344FB60FB68A6
:101930001A687B681B6803F01F03012101FA03F397
:101940001946FB680A431A6017E07B681B791A4640
:101950007B681B685B095B011344FA681344FB60F6
:10196000FB6819687B681B6803F01F03012202FAF9
:1019700003F3DA43FB680A401A6000BF1437BD4620
:101980005DF8047B704700BF00040140040401407F
:10199000080401400C04014080B485B000AF7860B9
:1019A0000023FB730023BB607B685B0903F10073BA
:1019B00003F502635B011B687A6802F01F020121D4
:1019C00001FA02F21340BB607B685B095A010D4BC0
:1019D00013441B687A6802F01F02012101FA02F227
:1019E0001340002B05D0BB68002B02D00123FB73F2
:1019F00001E00023FB73FB7B18461437BD465DF8FE
:101A0000047B70471404014080B483B000AF786059
:101A10007B6803F01F03012202FA03F17B685B0974
:101A20005A01054B13440A461A6000BF0C37BD46E5
:101A30005DF8047B704700BF1404014080B582B09C
:101A400000AF78607B68174A93420AD101214FF4B6
:101A50008050FFF7C1FA00214FF48050FFF7BCFA25
:101A60001CE07B68104A93420AD101214FF4804068
:101A7000FFF7D2FA00214FF48040FFF7CDFA0DE0D6
:101A80007B680A4A934209D101214FF40040FFF7D5
:101A9000C3FA00214FF40040FFF7BEFA00BF083739
:101AA000BD4680BD0030014000380040003C004091
:101AB00080B485B000AF786039600023FB813B685B
:101AC0005B88B3F5827F36D17B681B88FB81FB89FD
:101AD00003F44153FB813B681A883B685B881343DE
:101AE0009AB23B68D9883B681B890B4399B23B6823
:101AF00058893B689B89034398B23B68DB89034361
:101B00009BB20B439BB213439AB2FB891343FB81F5
:101B10007B68FA891A807B689B88FB81FB8923F4A8
:101B20007063FB813B689A88FB891343FB817B6868
:101B3000FA899A8035E07B689B88FB81FB8923F4D6
:101B40007063FB813B689A88FB891343FB817B6848
:101B5000FA899A807B681B88FB81FB8903F44153D7
:101B6000FB813B681A883B685B8813439AB23B68E9
:101B7000D9883B681B890B4399B23B6858893B68FD
:101B80009B89034398B23B68DB8903439BB20B43B9
:101B90009BB213439AB2FB891343FB817B68FA899A
:101BA0001A807B689B8B9BB223F400639AB27B689C
:101BB0009A833B681A8A7B681A8200BF1437BD4635
:101BC0005DF8047B704780B483B000AF78600B464B
:101BD000FB70FB78002B08D07B681B889BB243F01E
:101BE00040039AB27B681A8007E07B681B889BB22F
:101BF00023F040039AB27B681A8000BF0C37BD46C1
:101C00005DF8047B704780B483B000AF78600B460A
:101C10007B807B689B889BB223F480539AB27B685D
:101C20009A807B689B889AB27B8813439AB27B68C0
:101C30009A8000BF0C37BD465DF8047B704780B4C6
:101C400085B000AF78600B46FB700023FB607B68BB
:101C5000FB60FB680C33FB60FB68FA781A7000BF0E
:101C60001437BD465DF8047B704780B485B000AF83
:101C700078600023FB607B68FB60FB680C33FB60D3
:101C8000FB681B78DBB218461437BD465DF8047B51
:101C9000704780B485B000AF78600B467B8000232E
:101CA000FB737B681B899AB27B8813409BB2002B25
:101CB00002D00123FB7301E00023FB73FB7B18467A
:101CC0001437BD465DF8047B7047000080B485B0D2
:101CD00000AF03460A46FB711346BB710023FB604D
:101CE000BB7903F003039B000F2202FA03F3FB60AE
:101CF000164ABB799B08DBB2023352F82320FB68FB
:101D0000DB431248B9798908C9B21A408B1C40F8E4
:101D100023200E4ABB799B08DBB2023352F8232002
:101D2000F979BB7903F003039B0001FA03F3074839
:101D3000B9798908C9B21A438B1C40F8232000BF27
:101D40001437BD465DF8047B704700BF00000140BA
:101D500080B584B000AF0346FB71FB79104A52F89E
:101D6000233001211846FFF7D7F8FB790D4A32F8E6
:101D70001330BB6001233B730023BB730123FB7350
:101D800003237B73FB79084A52F8233007F10802DA
:101D900011461846FFF71AFA00BF1037BD4680BD3E
:101DA0006CA700085CA700083000002080B483B056
:101DB00000AF0346FB71FB79074A32F81310FB7939
:101DC000064A52F823300A469A6100BF0C37BD46D6
:101DD0005DF8047B704700BF5CA70008300000205E
:101DE00080B483B000AF0346FB71FA79FB790649F2
:101DF00051F82330054931F812201A8500BF0C37FD
:101E0000BD465DF8047B7047300000205CA70008E9
:101E100080B588B000AF03460A46FB711346BB711C
:101E20004FF4003301211846FFF776F80121012015
:101E3000FFF792F800233B770023FB770123BB6178
:101E4000FB79184A52F8233007F118021146184658
:101E5000FFF7BCF9BB79012B1FD1002300221146EB
:101E60001846FFF733FF00233B6100233B7508232F
:101E70007B750123BB7507F110031846FFF786FC3D
:101E800006233B730F237B730F23BB730123FB7369
:101E900007F10C031846FFF735F900BF2037BD46A0
:101EA00080BD00BF5000002080B582B000AF034667
:101EB000FB71FB79064A52F823300122114618467D
:101EC000FFF71AFA034618460837BD4680BD00BF23
:101ED0005000002080B584B000AF78600023FB7311
:101EE0000023BB7300F0D2F97B681A787B685B78BB
:101EF0001343DAB27B689B781343DAB2FB7B13435C
:101F0000DBB2FB737B681A797B685B791343DAB2C7
:101F10007B689B791343DAB27B68DB781343DAB2D0
:101F2000BB7B1343DBB2BB7307F10F031A462021BF
:101F3000322000F039F807F10E031A46232132202F
:101F400000F032F800BF1037BD4680BD80B584B0C8
:101F500000AF786007F10F0201232121322000F049
:101F6000D1F8FB7B03F00C03DBB2FB737B681A78C0
:101F70007B685B781343DAB27B68DB781343DAB2B1
:101F80007B681B791343DAB2FB7B1343DBB2FB7331
:101F900007F10F031A462121322000F005F800BF97
:101FA0001037BD4680BD000080B584B002AF034647
:101FB0003A60FB710B46BB71504B4FF420421A60E4
:101FC0000BE04E4B1B685A1E4C490A60002B04D193
:101FD00005F026FE03469BB28CE04FF400414848D2
:101FE000FFF7A6FB0346002BEBD1FB7999B24FF428
:101FF000005300934FF0807301224148FFF750FBDC
:102000003E4B4FF420421A600BE03C4B1B685A1EBB
:102010003A490A60002B04D105F002FE03469BB248
:1020200068E002213648FFF783FB0346002BECD023
:10203000BB7919463248FFF75FFB304B4FF4204223
:102040001A600BE02D4B1B685A1E2C490A60002BAE
:1020500004D105F0E5FD03469BB24BE08021284802
:10206000FFF766FB0346002BECD0FB7999B2002307
:1020700000934FF0007301222148FFF711FB1F4B23
:102080004FF420421A600BE01C4B1B685A1E1B4980
:102090000A60002B04D105F0C3FD03469BB229E082
:1020A00002211748FFF744FB0346002BECD03B68A6
:1020B0001B7819461248FFF71FFB104B4FF42042C4
:1020C0001A600BE00D4B1B685A1E0C490A60002B6E
:1020D00004D105F0A5FD03469BB20BE02021084882
:1020E000FFF726FB0346002BECD020210448FFF726
:1020F0003EFB002318460837BD4680BD5400002033
:102100000054004080B584B002AF3A601A460346DE
:10211000FB710B46BB711346BB805A4B4FF42042F8
:102120001A600BE0574B1B685A1E56490A60002B79
:1021300004D105F075FD03469BB29FE04FF40041CA
:102140005148FFF7F5FA0346002BEBD1FB7999B222
:102150004FF400530093002301224B48FFF7A0FAED
:10216000484B4FF420421A600BE0464B1B685A1E46
:1021700044490A60002B04D105F052FD03469BB28E
:102180007CE002214048FFF7D3FA0346002BECD055
:10219000BB88012B03D9BB7963F07F03BB71BB798B
:1021A00019463948FFF7A8FA364B4FF420421A6017
:1021B0000BE0344B1B685A1E32490A60002B04D1D5
:1021C00005F02EFD03469BB258E040212E48FFF754
:1021D000AFFA0346002BECD0FB7999B2BB88DAB298
:1021E0004FF4105300934FF000732748FFF758FA4D
:1021F00024E0244B4FF420421A600BE0214B1B6873
:102200005A1E20490A60002B04D105F009FD03463F
:102210009BB233E004211C48FFF78AFA0346002BE7
:10222000ECD01948FFF777FA03461A463B681A7054
:102230003B6801333B60BB88013BBB80BB88002B04
:10224000D7D1104B4FF420421A600BE00D4B1B68A6
:102250005A1E0C490A60002B04D105F0E1FC03462C
:102260009BB20BE020210848FFF762FA0346002BDF
:10227000ECD020210448FFF77AFA002318460837EB
:10228000BD4680BD540000200054004080B58CB095
:1022900000AF01214FF40010FEF77EFE01214FF444
:1022A0008020FEF739FE01214FF40010FEF734FEC6
:1022B00001214FF40010FEF72FFE01214FF4001012
:1022C000FEF72AFE042206214148FFF767F80422A0
:1022D00007213F48FFF762F8022387F82C300023DC
:1022E00087F82E30022387F82F30032387F82D300C
:1022F0004023BB6207F1280319463548FEF766FF05
:102300008023BB6207F1280319463148FEF75EFFC0
:10231000002387F82C30002387F82E30002387F81D
:102320002F30032387F82D300423BB6207F12803E5
:1023300019462848FEF74AFF02210420FFF7C6FC91
:1023400002233B62002387F82430082387F82530D6
:10235000012387F8263007F120031846FFF716FA05
:1023600000233B610023BB600023FB6000237B61F3
:102370000023BB610023FB61174B7B603B1D1946AB
:102380001648FFF70BF901211448FFF76DF91023E8
:10239000BB62002387F82C30002387F82E300323FC
:1023A00087F82D30002387F82F3007F128031946CE
:1023B0000848FEF70BFF2023BB6207F128031946EC
:1023C0000448FEF703FF00BF3037BD4680BD00BFA5
:1023D00000040048001000482520900000540040F0
:1023E00080B584B000AF78600023FB730023BB731B
:1023F00000F0C0F87B681A787B685B781343DAB228
:102400007B689B781343DAB27B68DB781343DAB2DC
:10241000FB7B1343DBB2FB737B681A797B685B79C8
:102420001343DAB27B689B791343DAB2BB7B134365
:10243000DBB2BB7307F10F0301222021184600F025
:1024400031F807F10E0301222321184600F02AF883
:1024500000BF1037BD4680BD80B584B000AF786046
:1024600007F10F0301222121184600F04BF8FB7BF6
:1024700023F03F03DBB2FB737B681A787B685B78E1
:102480001343DAB2FB7B1343DBB2FB7307F10F0399
:1024900001222121184600F005F800BF1037BD4683
:1024A00080BD000080B582B000AF78600B46FB7045
:1024B00013463B803B88012B03D9FB7843F0400354
:1024C000FB7008210E48FEF742FFFB78184600F02B
:1024D000FBF80AE07B681B78184600F0F5F83B88AB
:1024E000013B3B807B6801337B603B88002BF1D153
:1024F00008210348FEF71CFF00BF0837BD4680BD1A
:102500000010004880B582B000AF78600B46FB70C9
:1025100013463B803B88012B04D9FB7863F03F03D3
:10252000FB7003E0FB7863F07F03FB700821104829
:10253000FEF70DFFFB78184600F0C6F80CE000200F
:1025400000F0C2F803461A467B681A703B88013BCC
:102550003B807B6801337B603B88002BEFD10821F7
:102560000348FEF7E5FE00BF0837BD4680BD00BF4B
:102570000010004880B588B000AF01214FF48050B2
:10258000FEF7EAFC01214FF40030FEF7C5FC012103
:102590004FF40010FEF7C0FC01214FF40010FEF7CD
:1025A000BBFC01214FF40010FEF7B6FC052205210B
:1025B0004FF09040FEF7F2FE052206214FF09040CA
:1025C000FEF7ECFE052207214FF09040FEF7E6FEF5
:1025D00002233B770023BB770023FB7703237B7722
:1025E0002023BB6107F1180319464FF09040FEF716
:1025F000EDFD8023BB6107F1180319464FF09040B1
:10260000FEF7E4FD4023BB6107F1180319464FF0C4
:102610009040FEF7DBFD2A48FFF710FA0023BB804D
:102620004FF4E0633B8100237B810023BB814FF4A7
:102630000073FB8110233B8200237B820723BB8234
:102640004FF48273FB803B1D19461D48FFF730FA9B
:102650004FF480511A48FFF7D6FA01211848FFF7C6
:10266000B2FA0823BB6101233B770023BB77032326
:102670007B7707F1180319461248FEF7A7FD0821DA
:102680001048FEF755FE0123BB6100233B77002372
:10269000BB7703237B770023FB7707F118031946E9
:1026A0000848FEF793FD0223BB6107F118031946A2
:1026B0000448FEF78BFD00BF2037BD4680BD00BF3C
:1026C000003001400010004880B582B000AF0346E2
:1026D000FB711F4B4FF480521A600BE01C4B1B68C0
:1026E0005A1E1B490A60002B04D105F091FA0346DB
:1026F000DBB228E002211748FFF7CBFA0346002B94
:10270000ECD0FB7919461348FFF799FA104B4FF4B8
:1027100080521A600BE00E4B1B685A1E0C490A606F
:10272000002B04D105F074FA0346DBB20BE0012163
:102730000848FFF7AEFA0346002BECD00548FFF738
:1027400094FA034600BF18460837BD4680BD00BF57
:10275000580000200030014080B500AF1F4BD3F877
:1027600088301E4A43F47003C2F888301C4B1B6843
:102770001B4A43F001031360194B5A681849194B5F
:1027800013404B60164B1B68154A23F0847323F4E7
:1027900080331360124B1B68114A23F480231360AB
:1027A0000F4B5B680E4A23F4FE0353600C4BDB6A4D
:1027B0000B4A23F00F03D362094B1A6B08490A4BEB
:1027C00013400B63064B00229A6000F081F8034B24
:1027D0004FF000629A6000BF80BD00BF00ED00E0D6
:1027E000001002400CC07FF8CCFC00FF80B485B024
:1027F00000AF0023FB600023BB6000237B6000234D
:102800003B602E4B5B6803F00C03FB60FB68082BFE
:1028100011D0FB68082B36D8FB68002B03D0FB686F
:10282000042B04D02FE0264B264A1A602FE0244BBD
:10283000244A1A602BE0214B5B6803F47013BB60E1
:102840001E4B5B6803F480337B60BB689B0C0233D8
:10285000BB607B68002B06D1BB681B4A02FB03F3FD
:10286000174A136013E0154BDB6A03F00F030133C3
:102870003B60144A3B68B2FBF3F3BA6802FB03F314
:102880000F4A136003E00E4B0E4A1A6000BF0B4B59
:102890005B681B0903F00F030C4AD35CDBB2FB60DF
:1028A000074B1A68FB6822FA03F3054A136000BF5E
:1028B0001437BD465DF8047B704700BF001002402E
:1028C0005C00002000127A0000093D00600000203A
:1028D00080B483B000AF00237B6000233B60334BA8
:1028E0001B68324A43F480331360304B1B6803F497
:1028F00000333B607B6801337B603B68002B03D176
:102900007B68B3F5A06FF0D1284B1B6803F400334C
:10291000002B02D001233B6001E000233B603B68B9
:10292000012B3CD1224B12221A60204B1F4A5B68BC
:1029300053601E4B1D4A5B6853601C4B5B681B4A0F
:1029400043F480635360194B5B68184A23F47C138B
:102950005360164B5B68154A43F4E8135360134BFE
:102960001B68124A43F08073136000BF0F4B1B6853
:1029700003F00073002BF9D00C4B5B680B4A23F07B
:1029800003035360094B5B68084A43F0020353603A
:1029900000BF064B5B6803F00C03082BF9D100BFA6
:1029A0000C37BD465DF8047B704700BF0010024045
:1029B0000020024080B483B000AF7860FEE70000E2
:1029C00080B483B000AF786039607B6801221A6000
:1029D0003B68044A1A6000BF0C37BD465DF8047BB3
:1029E000704700BF7000002080B500AFFFF7B4FE55
:1029F000044BD3F88830034A43F47003C2F888309C
:102A000000BF80BD00ED00E080B500AFFFF7EEFE37
:102A100000BF80BD80B582B000AF01214FF0805073
:102A2000FEF7BAFA01210120FEF796FA01214FF4D0
:102A30000010FEF771FA01214FF40030FEF76CFA36
:102A40004FF400633B6003237B7102233B7100233F
:102A5000BB710223FB713B4619464FF09040FEF7D5
:102A6000B5FB01214FF40030FEF756FA4FF48053C6
:102A70003B600123FB713B4619464FF09040FEF747
:102A8000A5FB0E220B214FF09040FEF787FC0E2293
:102A90000C214FF09040FEF781FC01210020FFF750
:102AA000B7F91220FEF7B0FF0A4B12221A60094B49
:102AB00000221A71074B08225A71064B01229A71A3
:102AC0000448FEF763FE0020FEF79EFF00BF0837B4
:102AD000BD4680BDB005002080B500AF0020FEF7E8
:102AE0000BFA01214FF40000FEF756FA00BF80BD3B
:102AF00080B582B000AF1A4B7B600120FDF770FFFC
:102B0000FDF782FF03461A46164B1A7000BF1120CC
:102B1000FEF7A2FA0346002BF9D00120FDF79CFF37
:102B200000BF1920FEF798FA0346002BF9D00220C7
:102B3000FDF7A2FF00BFFDF7BBFF0346082BFAD14C
:102B40007B689B7A002B03D0074B05221A6002E0BA
:102B5000054B01221A6000BF0837BD4680BD00BF8B
:102B600048060020AD0500200C06002080B582B08C
:102B700000AF4FF4A060FEF7B1FA14233B710223BB
:102B80007B710023BB710123FB713B1D1846FEF7CF
:102B9000B9FA2A233B7101237B710123FB713B1D91
:102BA0001846FEF7AFFA06233B7100237B713B1DED
:102BB0001846FEF7A7FA00BF0837BD4680BD0000E3
:102BC00080B582B000AF0346FB71FB79002B05D0C6
:102BD0004FF480410648FEF7BAFB04E04FF4804111
:102BE0000348FEF7A5FB00BF0837BD4680BD00BF08
:102BF0000010004880B584B000AF0F4B1B68FB602D
:102C00000E4B1B68BB600E4B1B687B60FA687B68D1
:102C10001344FB60FB68002B09D008220949F868BF
:102C200000F014F804220849B86800F00FF800BF5B
:102C30001037BD4680BD00BFACF7FF1FB0F7FF1FC8
:102C4000B4F7FF1F520100206201002080B487B05A
:102C500000AFF860B9601346FB710023FB750023D9
:102C6000FB7527E0FB681B0F092B0BD8FB681B0FBC
:102C7000DAB2FB7D5B001946BB680B443032D2B23E
:102C80001A700AE0FB681B0FDAB2FB7D5B00194685
:102C9000BB680B443732D2B21A70FB681B01FB6071
:102CA000FB7D5B000133BA68134400221A70FB7D80
:102CB0000133FB75FA7DFB799A42D3D300BF00BF85
:102CC0001C37BD465DF8047B7047000080B582B0BC
:102CD00000AF78600B46FB70FB783F2B14D80D4B90
:102CE00000221A60FB789BB21A46C021786802F075
:102CF0008BF8FB789BB21946012000F091FE012071
:102D000000F03EFD012300E0002318460837BD46D1
:102D100080BD00BFF805002080B58AB000AF002359
:102D20007B627B4B1B689AB27A4B1A80794B1B886B
:102D30009BB203F40073784A12881340002B0AD028
:102D4000734B4FF6FF521A60744B1B78DBB20133A2
:102D5000DAB2724B1A706F4B1B889BB203F40043BC
:102D60006D4A12881340002B01D001F0CDFE694B53
:102D70001B889BB203F48063674A12881340002BC0
:102D800006D0634B4FF6FF321A60654B5B6898477D
:102D9000604B1B889BB203F400535F4A12881340B8
:102DA000002B03D05A4B4DF6FF721A60594B1B880B
:102DB0009BB203F48053584A12881340002B06D06C
:102DC000534B4EF6FF721A60002000F0AFF9514BE2
:102DD0001B889BB203F400634F4A12881340002BF8
:102DE0000ED0504B1B78DBB2002B02D000F0CCF899
:102DF00002E0022000F09AF9454B4FF2FF721A6090
:102E0000444B1B889BB203F48073434A12881340DF
:102E1000002B79D03E4B4FF6FF621A60424B1B6885
:102E20001BB2002B6ADA414B1B6801333F4A136027
:102E30003E4B1B68032B64D93D4B1B689BB203F0D0
:102E40000803002B5DD13A4B1B689BB21A46394BE5
:102E50001A6000237B6211E07B6A9B0003F18043D0
:102E600003F5B8431B689BB21A467B6A9B00283364
:102E70003B4443F8242C7B6A01337B627B6A072B3B
:102E8000EAD92C4B1B6843F001032A4A1360294BF3
:102E90001B689AB2264B1A60264B1B6823F001036D
:102EA000244A1360234B1B689AB2214B1A6000BF5F
:102EB000174B1B689BB203F48063002BF8D0144BB4
:102EC0004FF6FF321A6000237B6210E07B6A9B00A2
:102ED00028333B4453F8243C9AB27B6A9B0003F1AD
:102EE000804303F5B8431A607B6A01337B627B6AD7
:102EF000072BEBD90D4B00221A6002E00B4B00228E
:102F00001A60072000F012F900BF2837BD4680BDC7
:102F1000445C004000060020440600200206002019
:102F2000C0000020B0000020485C004004060020E3
:102F3000405C00400806002080B582B000AF012050
:102F4000FFF73EFE0123FB800C4AFB8813600C4B0D
:102F500000221A800A4B1A88084B1A60094B00227B
:102F60001A60074B4FF4E0521A80054B1A88034B46
:102F70001A60002318460837BD4680BD405C0040FB
:102F800044060020445C004080B485B000AF0023BC
:102F9000FB600023BB6000233B60524B1B68FB803F
:102FA0000023FB600FE0FB689B0003F1804303F507
:102FB000B8431B689BB219464B4AFB6842F8231082
:102FC000FB680133FB60FB68072BECD9FB8843F4FB
:102FD0008063FB80434AFB881360FB8843F0010356
:102FE000FB80404AFB881360FB8823F00103FB80D1
:102FF0003C4AFB88136000BF3C4B1B689BB203F448
:103000008063002BF8D0394B4FF6FF321A60002353
:10301000FB600EE0344AFB6852F823309AB2FB683A
:103020009B0003F1804303F5B8431A60FB6801334A
:10303000FB60FB68072BEDD9FB8843F00803FB809E
:10304000284AFB881360274B1B68FB80FB8843F0F2
:103050000403FB80234AFB881360254B1B683B60FD
:10306000234B1B68BB60BB6823F00303BB60BB68DA
:1030700043F00103BB601E4ABB6813601D4B1B6914
:103080001C4A43F004031361184B1B689BB203F402
:103090008053002B08D130BF00BF164B1B69154A67
:1030A00023F00403136116E0104B4EF6FF721A6012
:1030B0000C4B1B68FB80FB8823F00803FB80094A4C
:1030C000FB8813600A4A3B6813600A4B1B69094A74
:1030D00023F00403136100BF1437BD465DF8047B81
:1030E000704700BF405C004010060020445C004078
:1030F0000070004000ED00E080B582B000AF0A4BE8
:103100001B68FB80FB8823F00403FB80064AFB88D6
:103110001360FFF7EDFC044B4FF43F421A6000BF11
:103120000837BD4680BD00BF405C004080B584B01C
:1031300000AF0346FB71FB79072B02D03F4AFB79B6
:1031400013703E4B1B78DBB2052B6BD801A252F8F3
:1031500023F000BF6D310008893100089B31000861
:10316000A9310008C9310008EB310008344B1B6855
:10317000002B05D1FFF7C0FF304B06221A7058E034
:103180002E4B05221A7054E0FFF7B6FF2B4B04229A
:103190001A702B4B01221A604BE0284B02225A7006
:1031A000264B03221A7044E0244B5B78DBB2013BD0
:1031B000DAB2224B5A70214B5B78DBB2002B35D14F
:1031C0001E4B04221A7031E01E4B1B68FB81FB89E9
:1031D00043F01003FB811B4AFB891360174B052248
:1031E0001A70164B0A225A7023E0144B5B78DBB23C
:1031F000013BDAB2114B5A70104B5B78DBB2002BFB
:1032000016D1104B1B68FB81FB8923F01003FB8157
:103210000C4AFB891360094B06221A70084B0022E6
:103220001A6005E0054B06221A7002E000BF00E0BC
:1032300000BF00BF1037BD4680BD00BF3006002074
:1032400034060020405C004080B500AF094B0A4ABC
:103250001A60084B1B6802221A72084B084A1A604F
:10326000084B094A1A60054B1B681B68984700BF4A
:1032700080BD00BF3C06002048060020400600201C
:10328000C000002064060020F400002080B500AFDC
:10329000FFF7B0FC064B1B6800229A72FFF74CFE4A
:1032A00000F058FC034B00221A6000BF80BD00BF35
:1032B0003C0600200C06002080B500AF374B1B6891
:1032C00000229A72354B1B68354AD2795A72334BB9
:1032D0001B680022DA72002000F0A6F94FF400719A
:1032E000002000F0B5F91021002000F0D9F94021AC
:1032F000002000F03BFB8021002000F015FB0020A7
:1033000000F092FA274B93F830309BB21946002018
:1033100000F0A6FB002000F05DFA0021012000F083
:1033200097F9C021012000F0FFFA2021012000F0D0
:10333000B7F90021012000F0EBF94FF4C061022041
:1033400000F086F94FF48071022000F0EDFA0021C0
:10335000022000F0DDF92021022000F0A1F9002177
:10336000032000F075F94FF48871032000F0FEFA95
:103370004021032000F074FB4FF44051032000F083
:10338000C7F90021032000F08BF9002001F076FB43
:10339000054B01221A6000BF80BD00BF3C06002023
:1033A000A0A70008C00000200C06002080B483B055
:1033B00000AF074B7B607B689B7A002B02D0054BEC
:1033C00005221A6000BF0C37BD465DF8047B7047CC
:1033D000480600200C06002080B400AF034B0422F6
:1033E0001A6000BFBD465DF8047B70470C060020E4
:1033F00080B400AF054B1B78202B02D1034B002279
:103400001A7000BFBD465DF8047B70476806002057
:1034100080B400AF00BFBD465DF8047B704700007C
:1034200080B584B000AF0346FB710023FB60FB79DD
:10343000212B09D1164B1B681B7803F07F03212B2E
:1034400011D1144BFB600EE0FB79202B0BD1104BFC
:103450001B681B7803F07F03212B01D10E4BFB600F
:103460000E4B20221A70FB68002B01D102230BE0C7
:10347000074B1B68FA689A61054B1B6800225A8249
:10348000FB6800209847002318461037BD4680BDD2
:103490003C060020C1350008F5350008680600200C
:1034A00080B483B000AF0346FB710C4B1B681B78E4
:1034B00003F07F03212B09D1FB79022B01D10023DB
:1034C00005E0FB79222B01D1002300E002231846FE
:1034D0000C37BD465DF8047B704700BF3C060020FA
:1034E00080B582B000AF0346FB80FB8804491846D4
:1034F00000F01AFE034618460837BD4680BD00BFDF
:103500001801002080B582B000AF0346FB80FB8825
:103510000449184600F008FE034618460837BD4621
:1035200080BD00BF2001002080B584B000AF0346FD
:10353000FB800B4B1B68DB78FB73FB7B042B01D9F7
:10354000002309E0FB7BDB00064A1A44FB88114696
:10355000184600F0E9FD034618461037BD4680BD09
:103560003C0600203001002080B582B000AF034649
:10357000FB80FB880449184600F0D6FD0346184638
:103580000837BD4680BD00BF2801002080B483B04D
:1035900000AF03460A46FB711346BB71BB79002B93
:1035A00001D0022305E0FB79012B01D9022300E0C1
:1035B000002318460C37BD465DF8047B70470000B9
:1035C00080B483B000AF0346FB80FB88002B05D19D
:1035D000064B1B6808221A82002300E0044B1846A1
:1035E0000C37BD465DF8047B704700BF3C060020E9
:1035F000B400002080B483B000AF0346FB80FB889A
:10360000002B05D1064B1B6808221A82002300E01C
:10361000044B18460C37BD465DF8047B704700BF6D
:103620003C060020B400002080B483B000AF034605
:10363000FB80FA8805494FF6F87313400B6000BF12
:103640000C37BD465DF8047B704700BF505C0040FE
:1036500080B483B000AF03460A46FB711346BB80BB
:10366000FB799B0003F1804303F5B8431B681BB251
:1036700023F4EC4323F070031AB2B7F90430134378
:103680001BB29AB2FB799B0003F1804303F5B84368
:103690001A6000BF0C37BD465DF8047B7047000020
:1036A00090B482B000AF03460A46FB711346BB805C
:1036B000FB799B0003F1804303F5B8431B689BB281
:1036C00023F4E04323F040039CB2BB8803F01003D3
:1036D0009BB2002B02D084F010039CB2BB8803F095
:1036E00020039BB2002B02D084F020039CB2074B36
:1036F00023439AB2FB799B0003F1804303F5B8435F
:103700001A6000BF0837BD4690BC70478080FFFF3D
:1037100090B482B000AF03460A46FB711346BB80EB
:10372000FB799B0003F1804303F5B8431B689BB210
:1037300023F4804323F070039CB2BB8803F48053CE
:103740009BB2002B02D084F480539CB2BB8803F45C
:1037500000539BB2002B02D084F400539CB2074B61
:1037600023439AB2FB799B0003F1804303F5B843EE
:103770001A6000BF0837BD4690BC70478080FFFFCD
:1037800090B482B000AF0346FB71FB799B0003F15C
:10379000804303F5B8431B689BB223F4E04323F056
:1037A00040039CB284F010039CB284F020039CB2CE
:1037B000074B23439AB2FB799B0003F1804303F547
:1037C000B8431A6000BF0837BD4690BC704700BFC1
:1037D0008080FFFF90B482B000AF0346FB71FB799D
:1037E0009B0003F1804303F5B8431B689BB223F4AD
:1037F000804323F070039CB284F480539CB284F421
:1038000000539CB2074B23439AB2FB799B0003F110
:10381000804303F5B8431A6000BF0837BD4690BC2B
:10382000704700BF8080FFFF80B483B000AF0346C5
:10383000FB71FB799B0003F1804303F5B8431B68E0
:103840001AB240F60F6313401AB2084B13431BB26F
:103850009AB2FB799B0003F1804303F5B8431A60E9
:1038600000BF0C37BD465DF8047B70478080FFFFCA
:1038700080B483B000AF0346FB71FB799B0003F17A
:10388000804303F5B8431B689BB203F48043002BCD
:1038900016D0FB799B0003F1804303F5B8431B6806
:1038A0009BB21A4640F60F73134043F4404242F075
:1038B0008002FB799B0003F1804303F5B8431A6053
:1038C00000BF0C37BD465DF8047B704780B483B001
:1038D00000AF0346FB71FB799B0003F1804303F5C6
:1038E000B8431B689BB203F04003002B16D0FB7952
:1038F0009B0003F1804303F5B8431B689BB21A4653
:1039000040F60F73134043F4004242F0C002FB79CB
:103910009B0003F1804303F5B8431A6000BF0C37E6
:10392000BD465DF8047B704780B483B000AF0346AA
:103930000A46FB711346BB80BB885B089BB25A00EA
:10394000094B1B689BB21946FB79DB000B4403F162
:10395000005303F540535B001A6000BF0C37BD46AF
:103960005DF8047B704700BF505C004080B483B0BA
:1039700000AF03460A46FB711346BB80BB885B0859
:103980009BB25900084B1B689BB21A46FB79DB00BF
:103990001A44064B13445B000A461A6000BF0C37FA
:1039A000BD465DF8047B7047505C00400430002049
:1039B00080B483B000AF0346FB710A4B1B689BB217
:1039C0001A46FB79DB00134403F1005303F540531F
:1039D0005B001B689BB218460C37BD465DF8047B44
:1039E000704700BF505C004080B483B000AF034616
:1039F000FB71094B1B689BB21A46FB79DB001A442A
:103A0000064B13445B001B689BB218460C37BD463F
:103A10005DF8047B704700BF505C0040043000201C
:103A200080B483B000AF03460A46FB711346BB80E7
:103A3000094B1B689BB21A46FB79DB001A44074B03
:103A400013445B001A46BB88136000BF0C37BD46A9
:103A50005DF8047B704700BF505C004002300020DE
:103A600080B485B000AF03460A46FB711346BB80A5
:103A70001B4B1B689BB21A46FB79DB001A44194B9F
:103A800013445B00BB60BB883E2B12D9BB885B092B
:103A9000FB81BB8803F01F03002B02D1FB89013B94
:103AA000FB81FB899B0243F400431A46BB681A6002
:103AB0000FE0BB885B08FB81BB8803F00103002B90
:103AC00002D0FB890133FB81FB899B021A46BB684C
:103AD0001A6000BF1437BD465DF8047B704700BF15
:103AE000505C00400630002080B483B000AF034635
:103AF000FB710A4B1B689BB21A46FB79DB001A4428
:103B0000074B13445B001B689BB2C3F309039BB2D2
:103B100018460C37BD465DF8047B7047505C00408A
:103B20000630002080B485B000AF0346FB80FB88E0
:103B3000FB73FB881B0A9BB21AB2FB7B1B021BB2F6
:103B400013431BB2BB81BB8918461437BD465DF8D1
:103B5000047B704780B400AF084B00221A60084B0A
:103B60004FF43F421A80064B1A88064B1A60002316
:103B70001846BD465DF8047B704700BF445C0040BA
:103B800044060020405C004080B582B000AF034690
:103B9000FB80FB88002B05D1084B1B6801221A8291
:103BA000002306E0064B1B681B689847034B1B6805
:103BB0000A3318460837BD4680BD00BF3C060020CA
:103BC0006406002080B500AF0F4B1B68DA780F4BFE
:103BD0005B789A4215D80C4B1B689B78002B10D150
:103BE000094B1B689B88002B0BD1074B1A68064BAF
:103BF0001B68D2789A72064B1B685B689847002353
:103C000000E00223184680BD3C060020BC000020D6
:103C10006406002080B582B000AF0346FB80FB88BD
:103C2000002B05D1084B1B6801221A82002306E0F5
:103C3000064B1B689B689847034B1B680C33184660
:103C40000837BD4680BD00BF3C060020640600204A
:103C500080B582B000AF1D4B1B689B691C4A12687F
:103C600050791B4A1268D278114698470346FB7177
:103C7000174B1B689B7A002B23D0FB79002B09D1B3
:103C8000134B1B681B79002B04D1114B1B689B78CD
:103C9000002B01D0022315E0FB79002B11D10D4B35
:103CA0001B68DB6898470A4B1A68094B1B685279F6
:103CB000DA72074B1A68064B1B68D2781A73002316
:103CC00000E0022318460837BD4680BD40060020AC
:103CD0003C0600206406002080B584B000AF034697
:103CE000FB80FB88002B05D1464B1B6802221A8201
:103CF000002382E0444B00221A80424B1B681B7851
:103D000003F07F03002B2CD13E4B1B685B7A7B7347
:103D10007B7B03F02003002B07D03B4B1B7843F049
:103D20000203DAB2384B1A7006E0374B1B7823F0E7
:103D30000203DAB2344B1A707B7B03F04003002B92
:103D400007D0314B1B7843F00103DAB22E4B1A70C7
:103D50004EE02D4B1B7823F00103DAB22A4B1A7088
:103D600046E0284B1B681B7803F07F03012B01D131
:103D7000254B42E0234B1B681B7803F07F03022B8B
:103D800034D1204B1B685B79FB73FB7B03F00F0383
:103D9000BB7397F90F30002B13DABB7B9B0003F149
:103DA000804303F5B8431B689BB203F03003102B2C
:103DB0001ED1154B1B7843F00103DAB2124B1A7077
:103DC00016E0BB7B9B0003F1804303F5B8431B68FF
:103DD0009BB203F44053B3F5805F09D10A4B1B78C3
:103DE00043F00103DAB2084B1A7001E0002304E04B
:103DF000064B1B681B699847034B18461037BD4696
:103E000080BD00BF3C0600206C0600206406002038
:103E100090B587B000AF6F4B1B681B7803F07F0332
:103E20003B613B69002B0AD16A4B1B685A7A694B8C
:103E30001B6822F02002D2B25A720023C6E03B690E
:103E4000022B40F0C280634B1B685B88002B04D1BF
:103E5000604B1B681B79002B01D00223B6E05E4B40
:103E6000FB605C4B1B685B79BB60BB6823F0800325
:103E70007B607B683B60574B1B685B795BB2002BB8
:103E80000BDA3B689B0003F1804303F5B8431B68E2
:103E90009BB203F030037B610AE03B689B0003F1B7
:103EA000804303F5B8431B689BB203F440537B6126
:103EB000FB681B781A467B68934207D27B69002B0C
:103EC00004D0444B1B689B7A002B01D102237DE078
:103ED000BB6803F08003002B17D03B689B0003F105
:103EE000804303F5B8431B689BB203F03003102BEB
:103EF00065D13B68DBB21846FFF7E8FC3B68DBB2F4
:103F000030211846FFF7CCFB59E03B689B0003F1DA
:103F1000804303F5B8431B689BB203F44053B3F5E9
:103F2000805F4CD13B68002B27D13B68DBB22B4A2A
:103F300092F8302092B211461846FFF791FD3B6887
:103F40009B0003F1804303F5B8431B689BB223F445
:103F5000804323F070039CB284F480539CB284F4B9
:103F600000539CB21E4B23439AB23B689B0003F163
:103F7000804303F5B8431A6021E03B68DBB2184682
:103F8000FFF776FC3B689B0003F1804303F5B843E1
:103F90001B689BB223F4804323F070039CB284F42B
:103FA00080539CB284F400539CB20D4B23439AB2CD
:103FB0003B689B0003F1804303F5B8431A60094B4B
:103FC0001B685B699847002300E0022318461C37F2
:103FD000BD4690BD3C060020BC000020C000002073
:103FE0008080FFFF6406002090B585B000AF3F4B96
:103FF0001B685B79BB60BB6823F080037B607B68D8
:104000003B603A4B1B685B795BB2002B0BDA3B6879
:104010009B0003F1804303F5B8431B689BB203F098
:104020003003FB600AE03B689B0003F1804303F52B
:10403000B8431B689BB203F44053FB602C4B1B78C6
:104040001A463B6893420CD2284B1B685B88002BB6
:1040500007D1FB68002B04D0244B1B689B7A002BF4
:1040600001D102233EE0BB6803F08003002B1AD08D
:104070003B689B0003F1804303F5B8431B689BB288
:1040800023F4E04323F040039CB284F010039CB27D
:10409000184B23439AB23B689B0003F1804303F51E
:1040A000B8431A6019E03B689B0003F1804303F5B5
:1040B000B8431B689BB223F4804323F070039CB287
:1040C00084F480539CB20B4B23439AB23B689B0011
:1040D00003F1804303F5B8431A60074B1B689B69E3
:1040E0009847002318461437BD4690BD3C06002073
:1040F000BC0000208080FFFF6406002080B500AF78
:10410000074B1B685A7A064B1B6842F02002D2B25A
:104110005A72044B1B68DB6998470023184680BD20
:104120003C0600206406002080B485B000AF034642
:104130003960FB800D4B1B685B8AFB60FB88002BA2
:104140000AD13B689988FB689AB2084B1B688A1AA7
:1041500092B21A82002303E03B681A68FB6813449A
:1041600018461437BD465DF8047B70473C060020B6
:1041700080B584B000AF3A4B1B681033BB60BB689E
:104180001B887B60BB689B68002B2DD07B68002B55
:104190002AD0BB689B88FB60FA687B689A4201D989
:1041A0007B68FB60BB689B68FA6892B210469847D0
:1041B0003860BB681A88FB689BB2D31A9AB2BB6896
:1041C0001A80BB685A88FB689BB213449AB2BB68DA
:1041D0005A800020FFF708FC03461946FB689BB293
:1041E0001A46386800F04CFEBB681B88002B0AD0CA
:1041F0001C4B4FF440521A8000210020FFF710FCA6
:10420000194B30221A80BB681A88BB689B889A4277
:1042100004D3134B1B6803221A721DE0BB681B8872
:10422000002B04D00E4B1B6805221A7214E0BB68E9
:104230001B88002B10D10A4B1B6806221A720B4BED
:104240001B689BB21A460A4B13445B001A460023B4
:104250001360054B30221A8000BF1037BD4680BD69
:104260003C0600207006002072060020505C0040D2
:104270000230002080B586B000AF3B4B1B68103386
:10428000FB60FB681B88BB60374B1B681B7A7B613C
:10429000BB68002B1FD17B69042B1CD1334B1B78CF
:1042A000002B12D0324B1B689BB21A46314B134481
:1042B0005B001A46002313602F4B30221A80042320
:1042C0007B612A4B00221A7045E007237B612A4B51
:1042D00010221A803FE0FB689B883B61BA683B690B
:1042E0009A4201D8042300E002237B613A69BB684B
:1042F0009A4201D9BB683B61FB689B683A6992B2FC
:104300001046984778600020FFF752FB0346194695
:104310003B699BB21A46786800F076FD3B699BB218
:1043200019460020FFF77CFBFB681A883B699BB2AB
:10433000D31A9AB2FB681A80FB685A883B699BB211
:1043400013449AB2FB685A800B4B30221A800B4BF5
:104350004FF440521A80044B1B687A69D2B21A7229
:1043600000BF1837BD4680BD3C0600206E06002009
:10437000505C0040023000207206002070060020D1
:1043800080B584B000AF0223FB735D4B1B685B7884
:104390007B605B4B1B681B7803F07F03002B56D1BF
:1043A0007B68092B04D1FFF70DFC0346FB7376E015
:1043B0007B68052B1AD1524B1B68DB785BB2002B54
:1043C0000EDB4F4B1B689B78002B09D14C4B1B68B5
:1043D0009B88002B04D14A4B1B689B7A002B02D090
:1043E0000823BB6082E00023FB7358E07B68032B4B
:1043F00011D1434B1B68DB78012B09D1404B1B6863
:104400009B88002B04D1FFF779FE0346FB7346E03F
:104410000223FB7343E07B68012B40D1384B1B68C0
:10442000DB78012B10D1364B1B689B88002B0BD1FE
:10443000334B1B685B7A03F02003002B04D0FFF79B
:10444000E7FC0346FB732AE00223FB7327E02C4BB7
:104450001B681B7803F07F03012B07D17B680B2BB4
:104460001DD1FFF7F5FB0346FB7318E0244B1B68D7
:104470001B7803F07F03022B0FD17B68012B04D143
:10448000FFF7C6FC0346FB7309E07B68032B06D1EC
:10449000FFF7AAFD0346FB7301E00223FB73FB7BDE
:1044A000002B0ED0174B1B685B697A68D2B210469E
:1044B00098470346FB73FB7B032B02D10923BB60A8
:1044C00014E0FB7B002B02D00823BB600EE0062328
:1044D000BB600D4B1B689BB21A460C4B13445B0030
:1044E0001A46002313600A4B30221A80044B1B68C3
:1044F000BA68D2B21A7200BF1037BD4680BD00BF85
:104500003C06002040060020505C004002300020A5
:104510007206002080B58AB000AF8B4B1B685B78B9
:10452000BB6100237B6200237B61BB69062B2CD11E
:10453000854B1B681B7803F07F03002B40F0DC8069
:10454000814B1B689B78FB72FB7A012B04D17F4B5C
:104550001B68DB697B62CFE0FB7A022B04D17B4BCB
:104560001B681B6A7B62C7E0FB7A032B04D1774B85
:104570001B685B6A7B62BFE0FB7A062B40F0BC8065
:10458000724B1B689B6A7B62B6E0BB69002B78D1DB
:104590006D4B1B685B88002B73D16B4B1B68DB88F2
:1045A000022B6ED1684B1B681B79002B69D1664BBF
:1045B0001B681B7803F07F03002B07D1624B1B683D
:1045C0009B88002B02D1624B7B6294E05E4B1B68A0
:1045D0001B7803F07F03012B14D15C4B1B689B6994
:1045E000594A126852790021104698470346002B19
:1045F00040F08180544B1B689B7A002B7BD0544B3E
:104600007B6278E0504B1B681B7803F07F03022B22
:1046100071D14D4B1B685B7903F00F033B614A4B33
:104620001B685B7903F07003FB60474B1B685B7989
:104630005BB2002B0BDA3B699B0003F1804303F56F
:10464000B8431B689BB203F03003FB610AE03B698F
:104650009B0003F1804303F5B8431B689BB203F44E
:104660004053FB613B4B1B781A463B69934242D255
:10467000FB68002B3FD1FB69002B3CD0344B7B62A5
:1046800039E0BB69082B09D12F4B1B681B7803F05D
:104690007F03002B30D1304B7B622DE0BB690A2BAE
:1046A0002AD1294B1B681B7803F07F03012B23D1F0
:1046B000254B1B689B7A002B1ED0234B1B685B8805
:1046C000002B19D1204B1B681B79002B14D11E4BDA
:1046D0001B68DB88012B0FD11C4B1B689B691A4A96
:1046E000126852790021104698470346002B03D1E7
:1046F0001A4B7B6200E000BF7B6A002B0FD0124B8D
:104700001B687A6992B25A820F4B1B687A6A9A6167
:104710007B6A00209847002387F8233020E00B4B6A
:104720001B681B69084A126852781046984703466E
:1047300087F8233097F82330032B11D1024B1B68E5
:1047400009221A7278E000BF3C06002040060020D3
:10475000D93C0008BC000020893B0008153C00083B
:10476000374B1B681B8A4FF6FF72934204D1344BC0
:104770001B6809221A725FE097F82330022B04D0DD
:104780002F4B1B681B8A002B04D12D4B1B68082262
:104790001A7251E02A4B1B681B785BB2002B42DA7D
:1047A000274B1B68DB887B60254B1B681B8A1A46DE
:1047B0007B689A4205D97A68214B1B6892B21A82AB
:1047C00026E01F4B1B681A8A1D4B1B68DB889A4228
:1047D0001ED21B4B1B681A8A1A4B1B6893F8303089
:1047E0009BB29A4203D2184B00221A7010E0144B6D
:1047F0001B681B8A134A126892F8302093FBF2F16F
:1048000001FB02F29B1A002B02D10F4B01221A70FE
:104810000C4B1B6893F83020094B1B6892B29A82AC
:10482000FFF728FD07E0064B1B6803221A72074BAF
:104830004FF440521A8000BF2837BD4680BD00BFEC
:104840003C060020400600206E0600207006002076
:1048500090B583B000AF0123FB80304B1B689BB247
:104860001A462F4B13445B001B689BB25B0003F19D
:10487000804303F5C0433B602A4B1B681B7A092B1E
:1048800037D03B685A1C3A60264A12681B7813706E
:104890003B685A1C3A60234A12681B7853703A6886
:1048A000FB885B0013443B603B689A1C3A601B88A2
:1048B0001C4A14681846FFF735F9034663803A68C6
:1048C000FB885B0013443B603B689A1C3A601B8882
:1048D000144A14681846FFF725F90346A3803A687E
:1048E000FB885B0013443B603A680E4B1B681288E0
:1048F000DA800C4B1B6801221A720A4B1B68DB889A
:10490000002B02D1FFF73CFD01E0FFF703FE00F0B2
:104910008DF8034618460C37BD4690BD505C0040EC
:10492000043000203C06002080B582B000AF1F4B51
:104930001B681B7A7B607B68022B02D07B68042B90
:1049400006D1FFF797FC194B1B681B7A7B6021E0AF
:104950007B68062B1CD1154B1B685B78052B10D18F
:10496000124B1B681B7803F07F03002B09D10F4B00
:104970001B68DB78184600F081F80D4B1B681B6A3A
:1049800098470C4B1B689B68984708237B6001E0A5
:1049900008237B60054B1B687A68D2B21A7200F05C
:1049A00045F8034618460837BD4680BD3C06002042
:1049B000640600204006002080B582B000AF194B8D
:1049C0001B681B7A7B607B68022B02D07B68042B00
:1049D00002D108237B6018E07B68032B02D07B6840
:1049E000052B06D1FFF7C4FB0E4B1B681B7A7B60BF
:1049F0000BE07B68072B06D10B4B1B68DB689847E5
:104A000008237B6001E008237B60064B1B687A6803
:104A1000D2B21A7200F00AF8034618460837BD46AB
:104A200080BD00BF3C0600204006002080B500AFDE
:104A30000E4B93F830309BB219460020FFF710F868
:104A40000B4B1B681B7A082B06D10A4B4FF4805284
:104A50001A80094B10221A80054B1B681B7A092B00
:104A60000CBF01230023DBB2184680BDC00000202C
:104A70003C060020700600207206002080B485B03D
:104A800000AF0346FB711A4B1B78BB600023FB6031
:104A90001EE0FB68DBB29B0003F1804303F5B843E3
:104AA0001B689BB21A4640F60F73134043F4004351
:104AB00043F08003FA68D2B21A43FB68DBB29B0072
:104AC00003F1804303F5B8431A60FB680133FB60D0
:104AD000FA68BB689A42DCD3FB7963F07F03DAB2F1
:104AE000044B1A6000BF1437BD465DF8047B704765
:104AF000BC0000204C5C004080B400AF00BFBD464D
:104B00005DF8047B7047000090B583B000AF0023D0
:104B1000FB8062E1844B1B889BB2DBB203F00F0386
:104B2000DAB2824B1A70814B1B78002B40F008815F
:104B30007F4B1B689AB27F4B1A807E4B1B889BB2BF
:104B400003F030039AB27C4B1A807A4B1B889BB2DD
:104B500003F440539AB2774B1A80754B1B689BB293
:104B60004BF6BF741C4084F4005484F02004A2B2BD
:104B7000724B13439AB26E4B1A606B4B1B889BB2FD
:104B800003F01003002B3FD1694B1B689BB2194601
:104B9000674A48F60F730B401360FFF7C5FE644B7E
:104BA0001B689BB24BF6BF741C40624B1B889BB2C8
:104BB00003F480539BB2002B01D084F480545D4BEE
:104BC0001B889BB203F400539BB2002B01D084F4EA
:104BD0000054594B1B889BB203F010039BB2002B6F
:104BE00001D084F01004544B1B889BB203F02003C7
:104BF0009BB2002B01D084F02004A2B24F4B134390
:104C00009AB24B4B1A60F2E0494B1B689BB2FB8097
:104C1000FB889BB203F40063002B3FD0444B1B681E
:104C20009BB21946424A40F68F730B401360FFF760
:104C30000FFE3F4B1B689BB24BF6BF741C403D4BB5
:104C40001B889BB203F480539BB2002B01D084F4E9
:104C50008054384B1B889BB203F400539BB2002B4B
:104C600001D084F40054344B1B889BB203F0100332
:104C70009BB2002B01D084F010042F4B1B889BB2F9
:104C800003F020039BB2002B01D084F02004A2B2D9
:104C90002A4B13439AB2264B1A60A8E0FB889BB2BA
:104CA0001BB2002B80F29980214B1B689BB21946E6
:104CB0001F4A40F68F730B401360FFF77DFE1C4BBD
:104CC0001B689BB24BF6BF741C401A4B1B889BB2EF
:104CD00003F480539BB2002B01D084F48054154B15
:104CE0001B889BB203F400539BB2002B01D084F4C9
:104CF0000054114B1B889BB203F010039BB2002B96
:104D000001D084F010040C4B1B889BB203F02003ED
:104D10009BB2002B01D084F02004A2B2074B1343B6
:104D20009AB2034B1A6062E00006002038060020A9
:104D3000005C004070060020720600208080FFFFAB
:104D40002C4B1B789B0003F1804303F5B8431B6891
:104D50009BB2FB80FB889BB21BB2002B1BDA254B5E
:104D60001B789B0003F1804303F5B8431B689BB29B
:104D70001946204B1B789B0003F1804303F5B84391
:104D800040F68F720A401A601A4B1B78013B1A4A90
:104D900052F823309847FB889BB203F08003002B26
:104DA0001BD0144B1B789B0003F1804303F5B843E1
:104DB0001B689BB219460F4B1B789B0003F1804385
:104DC00003F5B84348F60F720A401A60094B1B7886
:104DD000013B0A4A52F823309847094B1B689AB2A4
:104DE000084B1146198013B2002BFFF693AE0C3717
:104DF000BD4690BD380600209400002078000020B9
:104E0000445C00400006002080B489B000AF7860A8
:104E10000B467B8013463B803B8801335B107B61F4
:104E20007B8803F1005303F540535B00BB617B6952
:104E3000FB611BE07B681B783B617B6801337B6017
:104E40007B681B781B021A463B691343FB60BB69F6
:104E50009A1CBA61FA6892B21A80BB690233BB61CC
:104E60007B6801337B60FB69013BFB61FB69002BC5
:104E7000E0D100BF00BF2437BD465DF8047B70471A
:104E800080B487B000AF78600B467B8013463B80D0
:104E90003B8801335B10FB607B8803F1005303F513
:104EA00040535B003B61FB687B610EE03B691A1D70
:104EB0003A6119687B685A1C7A608AB21A807B68EA
:104EC00001337B607B69013B7B617B69002BEDD10A
:104ED00000BF00BF1C37BD465DF8047B7047000073
:104EE00080B400AF034B01221A6000BFBD465DF8DD
:104EF000047B7047F805002080B500AF0A4B012203
:104F00001A600320FEF7F0FD03461A46074B1A60AD
:104F1000064B1B689BB21A464FF488710448FFF792
:104F2000AFFF00BF80BD00BFFC050020740600205D
:104F3000B805002080B485B000AFF860B9607A6031
:104F40007A68FB68DA60FB6800221A60FB6800225E
:104F50005A60FB68BA689A60FB68DB6818461437C9
:104F6000BD465DF8047B704780B500AF084B1A461C
:104F70004FF47A71074800F044F8FDF74BFDFDF758
:104F8000ABFDFDF7F3FDFEF75FF900BF80BD00BF8D
:104F90008C0600207806002080B582B000AF012189
:104FA0004FF40030FBF7B8FF4FF480533B60012310
:104FB0003B710023BB7103237B710023FB713B46D4
:104FC00019464FF09040FCF701F900224FF4805150
:104FD0004FF09040FCF7CAF900BF0837BD4680BDCE
:104FE00080B483B000AF78607B6800221A617B6870
:104FF0000022DA607B6818460C37BD465DF8047BFA
:10500000704780B586B000AFF860B9607A60BB6861
:10501000002B01D10123BB60FB687A68B968184690
:10502000FFF788FF0346002B0CBF01230023DBB2F0
:10503000002B01D0002316E0FB68BA689A60FB6879
:1050400000221A6100237B61BB687A699A4209D207
:10505000FB68DA687B69134400221A707B690133AC
:105060007B61F1E7012318461837BD4680BD80B546
:1050700084B000AF78607B68DB687A68126813449C
:105080001B78FB73786800F01CF8034683F001037B
:10509000DBB2002B10D07B681B6801337A68926802
:1050A00093FBF2F101FB02F29A1A7B681A607B68AB
:1050B0001B695A1E7B681A61FB7B18461037BD4678
:1050C00080BD80B483B000AF78607B681B69002B23
:1050D0000CBF01230023DBB218460C37BD465DF838
:1050E000047B704780B582B000AF786039607B6820
:1050F000012B07D13B684FF6FF72934202D1034860
:10510000FFF76EFF00BF0837BD4680BD7806002060
:1051100080B500AF4FF6FF710120FFF7E3FF80BDC0
:1051200080B582B000AF03237B7101214FF40010E2
:10513000FBF7F2FE01214FF40020FBF7EDFE012109
:105140004FF48020FBF7E8FE01214FF48010FBF7BD
:10515000E3FE4FF47F433B6001233B710023BB71AF
:105160000123FB713B4619462248FCF72FF8012327
:105170003B6000233B710123FB713B4619464FF016
:105180009040FCF723F84FF4EE533B6000233B7153
:105190000123FB713B4619461748FCF717F87B23A0
:1051A0003B6000233B710123FB713B4619461348CA
:1051B000FCF70CF804233B6001233B710123FB71D6
:1051C0003B4619460D48FCF701F804210B48FCF753
:1051D000BEF84FF480710848FCF78EF80346002BA8
:1051E00014BF01230023DAB2054B1A7000BF083741
:1051F000BD4680BD0010004800080048000C004873
:10520000740A002080B58CB000AF7860484B1A4615
:105210004FF480714748FFF7F4FE474B1A464FF4AE
:1052200080714648FFF7EDFE262387F82C300023D7
:1052300087F82D30002387F82E30012387F82F3090
:1052400007F12C031846FBF75DFF01214FF40030F6
:10525000FBF762FE01214FF40030FBF79DFE0722B1
:105260000E214FF09040FCF799F8072201214FF0F2
:105270009040FCF793F807220F214FF09040FCF785
:105280008DF84FF480437B62022387F82830032394
:1052900087F82930002387F82A30012387F82B303C
:1052A00007F1240319464FF09040FBF78FFF0223CC
:1052B0007B6207F1240319464FF09040FBF786FF0D
:1052C0004FF400437B6207F1240319464FF09040EE
:1052D000FBF77CFF7B68FB600023BB6100233B6224
:1052E0000423FB61164B1B78002B05D000233B6188
:1052F0004FF400537B6104E04FF480533B61002383
:105300007B6107F10C0319460E48FBF779F805217C
:105310000C48FBF7A3F905210A48FBF787F901219F
:105320000848FBF767F900BF3037BD4680BD00BFB6
:105330008C0A0020780A0020A00B00208C0B002093
:10534000740A00200044004080B500AF01220549E6
:105350000548FBF79BF9012204490348FBF796F93E
:1053600000BF80BD070107000044004005010500A3
:1053700080B500AF25492648FBF7E3F90346002B2B
:1053800014BF01230023DBB2002B07D02048FBF71A
:1053900021F90346DBB2184602F07EFA1D491C488B
:1053A000FBF7CFF90346002B14BF01230023DBB228
:1053B000002B24D01848FFF784FE034683F0010336
:1053C000DBB2002B09D01448FFF751FE03469BB215
:1053D00019460F48FBF7ECF811E040210C48FBF7A9
:1053E00097F90346002B0CBF01230023DBB2002BEF
:1053F00000D0F2E7002207490548FBF747F90749C3
:105400000348FBF7EEF900BF80BD00BF05010500B2
:105410000044004007010700780A00200003030051
:1054200080B582B000AF786039607B68012B0AD10B
:105430003B684FF6FF72934205D10548FFF7D0FD58
:105440000448FFF7CDFD00BF0837BD4680BD00BF53
:10545000780A00208C0B002080B500AF4FF6FF715A
:105460000120FFF7DDFF80BD80B483B000AF0346AD
:105470003960FB7197F90730002B0BDA3B68DAB221
:105480000C49FB7903F00F03043B1201D2B20B4429
:105490001A7609E03B68DAB2074997F9073012013A
:1054A000D2B20B4483F8002300BF0C37BD465DF831
:1054B000047B704700ED00E000E100E080B582B0C1
:1054C00000AF78607B68013BB3F1807F01D301239B
:1054D0000FE00A4A7B68013B53600F214FF0FF3019
:1054E000FFF7C2FF054B00229A60044B07221A60A7
:1054F000002318460837BD4680BD00BF10E000E01D
:1055000080B582B000AF87ED010A97ED010A02F085
:10551000A5FDF0EE407AB0EE670A0837BD4680BDC3
:1055200080B582B000AF87ED010A97ED010A02F065
:10553000F3FDF0EE407AB0EE670A0837BD4680BD55
:1055400080B582B000AF87ED010A97ED010A02F045
:1055500097FEF0EE407AB0EE670A0837BD4680BD90
:1055600080B582B000AF87ED010A97ED010A02F025
:10557000ADFDF0EE407AB0EE670A0837BD4680BD5B
:1055800080B483B000AF78607B680C3300221A606F
:105590005A609A607B684FF000021A607B684FF097
:1055A00000025A607B684FF000029A607B681846E0
:1055B0000C37BD465DF8047B704780B483B000AF04
:1055C000786039607B6893ED007A3B68D3ED007AB0
:1055D00077EE277A7B68C3ED037A7B6893ED017AD7
:1055E0003B68D3ED017A77EE277A7B68C3ED047AC6
:1055F0007B6893ED027A3B68D3ED027A77EE277AE7
:105600007B68C3ED057A00BF0C37BD465DF8047BAF
:10561000704780B483B000AF786087ED000A7B6884
:10562000D3ED006A97ED007AC6EE877A7B68C3ED0A
:10563000037A7B68D3ED016A97ED007AC6EE877A2C
:105640007B68C3ED047A7B68D3ED026A97ED007A3C
:10565000C6EE877A7B68C3ED057A00BF0C37BD467E
:105660005DF8047B704780B483B000AF7860396028
:105670003B681A687B681A603B685A687B685A60A6
:105680003B689A687B689A6000BF0C37BD465DF83E
:10569000047B704780B483B000AF786039603B68AA
:1056A000002B01D17B680BE03B68012B02D17B68AA
:1056B000043305E03B68022B02D17B680833FFE727
:1056C00018460C37BD465DF8047B704780B582B044
:1056D00000AF78607B680C33184602F0B3FB7B6840
:1056E0001A697B681A607B68D3ED037AF1EE677AFA
:1056F0007B68C3ED017A7B685A697B689A6000BF5A
:105700000837BD4680BD000080B582B000AF78602C
:105710007B680C33184602F011FB7B68D3ED036AFB
:10572000104B93ED007AC6EE877A7B68C3ED007A62
:105730007B68D3ED046A0B4B93ED007AC6EE877A53
:105740007B68C3ED017A7B68D3ED056A054B93ED69
:10575000007AC6EE877A7B68C3ED027A00BF08370D
:10576000BD4680BD340D002080B483B000AF7860AA
:105770007B684FF000021A607B684FF000025A60AD
:105780007B684FF000029A6000BF0C37BD465DF8A1
:10579000047B704780B483B000AF78607B68DA68C0
:1057A0007B681A607B681A697B685A607B685A69F3
:1057B0007B689A6000BF0C37BD465DF8047B70477C
:1057C00080B582B000AF786039607B683A68114676
:1057D0001846FFF7F2FE7A687B680C3319461046CC
:1057E000FFF741FF7B6803F118023B681833194645
:1057F0001046FFF7E2FE7B6803F118027B68243352
:1058000019461046FFF72FFF00BF0837BD4680BD81
:1058100080B582B000AF786087ED000A7B6897EDB5
:10582000000A1846FFF7F5FE7A687B680C331946C4
:105830001046FFF718FF7B68183397ED000A1846EB
:10584000FFF7E7FE7B6803F118027B6824331946F3
:105850001046FFF708FF00BF0837BD4680BD80B483
:1058600085B000AFF860B9607A60BB68002B11D1D9
:105870007B68002B02D1FB681B6821E07B68012B51
:1058800002D1FB685B681BE07B68022B17D1FB68C9
:105890009B6815E0BB68012B11D17B68002B02D1FE
:1058A000FB689B690CE07B68012B02D1FB68DB691C
:1058B00006E07B68022B02D1FB681B6A00E001E076
:1058C00007EE903AB0EE670A1437BD465DF8047BE8
:1058D000704780B582B000AF78607B681846FFF7EC
:1058E000F5FE7B6818331846FFF70EFF00BF083738
:1058F000BD4680BD80B582B000AF78607B68184639
:10590000FFF732FF7B6818331846FFF72DFF00BF03
:105910000837BD4680BD0000B0B588B000AF7860E4
:10592000694B07F10C041D460FCD0FC42B68237083
:105930007B68002283F862207B6893F86230022B38
:105940003FD87A687B6893F8623019461046FFF7B3
:10595000A1FE0346D3ED007AB0EE670AFFF700FE22
:10596000F0EE407AFDEEE77A17EE903A1AB27B68D5
:10597000A3F860207B68B3F960207B6893F86230FD
:1059800002335B00194607F10C030B44D2B21A70C4
:105990007B68B3F960301B121AB27B6893F86230EF
:1059A0005B000533194607F10C030B44D2B21A70A1
:1059B0007B6893F862300133DAB27B6883F8622047
:1059C000BAE77B68002283F862207B6893F8623034
:1059D000022B41D87B6803F118027B6893F8623090
:1059E00019461046FFF756FE0346D3ED007AB0EE97
:1059F000670AFFF7B5FDF0EE407AFDEEE77A17EEA5
:105A0000903A1AB27B68A3F860207B68B3F96020F3
:105A10007B6893F8623005335B00194607F10C038D
:105A20000B44D2B21A707B68B3F960301B121AB201
:105A30007B6893F862305B000B33194607F10C0367
:105A40000B44D2B21A707B6893F862300133DAB239
:105A50007B6883F86220B8E77B680022A3F86020A7
:105A60007B68002283F862207B6893F86230102BF9
:105A70001BD87B68B3F960309AB27B6893F86230C8
:105A8000194607F10C030B441B789BB213449BB2DD
:105A90001AB27B68A3F860207B6893F86230013308
:105AA000DAB27B6883F86220DEE77B68B3F96030A6
:105AB000DBB23B7707F10C0311211846FDF706F91D
:105AC00000BF2037BD46B0BD54A8000880B52DEDFD
:105AD000028B82B000AF786039607B6893ED008AFA
