:020000040800F2
:1000000080B58EB000AF04F04BFC4B4B4B4A1A60EE
:100010004B4B4A4A1A604B4B3B634B4BFB624B4B7F
:10002000BB62FB6A7B6207E03A6B131D3B637B6A32
:10003000191D796212681A60BA6A7B6A9A42F3D80B
:1000400000BF3D4B1B68424A934204D13C4B1B68A6
:10005000404A934200D0FEE73F4B384A1A603F4B7C
:10006000364A1A603E4B3B623E4BFB613B6ABB61CA
:1000700004E0BB691A1DBA6100221A60FA69BB6903
:100080009A42F6D800BF344B1B68002B03D1334B88
:100090001B68002B00D0FEE704F012FC3A463B1D23
:1000A0001146184604F0E8FB2F4A304BD31A9B1038
:1000B000FB600023BB6007E02C4ABB6852F823308A
:1000C0009847BB680133BB60FA68BB689A42F3DCAF
:1000D000274A284BD31A9B10FB600023BB6007E024
:1000E000244ABB6852F823309847BB680133BB6091
:1000F000FA68BB689A42F3DC00BF7B683A68114635
:10010000184601F05DFF78631B4A1C4BD31A9B1005
:100110007B617B693B6108E03B69013B174A52F810
:10012000233098473B69013B3B613B69002BF3DC83
:1001300000BF786B05F09AF800000020BABADECA5A
:1001400070050020B46B000800000020740500203A
:100150007856341232547698780500207C130020AB
:100160007805002080130020A8010008A8010008DD
:10017000B0010008A8010008B0010008B0010008A3
:10018000B46B00080000002074050020B46B000868
:1001900000000010000000107805002080130020EF
:1001A000000000100000001025060008E9230008E8
:1001B00080B584B000AF08233B7240237B720723D5
:1001C000BB721023FB7200233B7300237B7310234D
:1001D000BB7307F10803184603F00CFF20233B71A3
:1001E00005237B713B1D184603F040FFBB7B202B92
:1001F0000ED0202B10DC002B02D0102B04D00BE0F3
:10020000074B084A1A6007E0054B074A1A6003E0EB
:10021000034B064A1A6000BF00BF1037BD4680BDC1
:10022000F005002000000C4100008C4100008C42D1
:1002300080B584B000AF786001222921244803F002
:100240006BFF244B01222821184603F065FF224B47
:1002500001222B21184603F05FFF204B01222A21A7
:10026000184603F059FF1E4B01222D21184603F0BA
:1002700053FF1C4B01222C21184603F04DFF002395
:10028000FB731CE0FB7B5B00114AD35C9BB21B023F
:100290009AB2FB7B5B0001330D49CB5C9BB21344EC
:1002A0009BB219B2FB7B9B007A68134407EE901A4D
:1002B000F8EEE77AC3ED007AFB7B0133FB73FB7B3F
:1002C000022BDFD900BF00BF1037BD4680BD00BF85
:1002D0007C0500207D0500207E0500207F05002094
:1002E000800500208105002080B584B000AF002388
:1002F0003B7270237B720723BB723023BB730023D6
:100300003B7300237B730823FB7207F10803184635
:1003100004F02CF880233B7020237B700823BB70F3
:100320000123FB7002233B713B46184604F05AF848
:1003300000BF1037BD4680BD80B58AB000AF786081
:100340000023FB6000233B82002387F826304FF018
:100350007E533B6207F1140202232321322004F072
:100360001DF907F10C0201232821322004F016F9AF
:1003700007F10C02013201232921322004F00EF989
:1003800007F10C02023201232A21322004F006F97F
:1003900007F10C02033201232B21322004F0FEF876
:1003A00007F10C02043201232C21322004F0F6F86C
:1003B00007F10C02053201232D21322004F0EEF862
:1003C0007B7D03F04003002B03D0402387F82730C8
:1003D00002E0102387F827303B7D03F04003002B19
:1003E00004D07B7D03F04003002B2CD0002387F842
:1003F000263023E097F826305B00013328333B4456
:1004000013F81C3C1B021BB21A4697F826305B00FF
:1004100028333B4413F81C3C1A4497F8273092FBCE
:10042000F3F297F8263012B25B0028333B4423F8EE
:10043000102C97F82630013387F8263097F82630AD
:10044000022BD7D92BE0002387F8263023E097F83A
:1004500026305B0028333B4413F81C3C1B021BB2C4
:100460001A4697F826305B00013328333B4413F8D3
:100470001C3C1A4497F8273092FBF3F297F8263089
:1004800012B25B0028333B4423F8102C97F8263037
:10049000013387F8263097F82630022BD7D907F199
:1004A000140202232321322004F078F87B7D03F02C
:1004B0004003002B03D04FF07A533B621EE03B7D9C
:1004C00003F03003302B16D0302B17DC202B0ED04E
:1004D000202B13DC002B02D0102B04D00EE04FF0A9
:1004E0007E533B620AE04FF07C533B6206E04FF0E4
:1004F0007A533B6202E0154B3B6200BF002387F852
:1005000026301AE097F826305B0028333B4433F955
:10051000103C07EE903AF8EEE76A97F826309B0019
:100520007A68134497ED087AC6EE877AC3ED007AAD
:1005300097F82630013387F8263097F82630022BBB
:10054000E0D900BF00BF2837BD4680BD9FCDAA3D82
:1005500080B582B000AF78600123184A31213C2079
:1005600004F01CF8164A012332213C2004F016F84E
:10057000124B1B789BB21B029AB2104B5B789BB25A
:1005800013449BB21BB21B111BB207EE903AF8EE5C
:10059000E77A9FED0C7A67EE877A7B68C3ED007A85
:1005A0007B6893ED007ADFED076AC7EE267A7B68F9
:1005B000C3ED007A00BF0837BD4680BD840500202A
:1005C000850500200000C84280B483B000AF786089
:1005D0007B6800221A617B680022DA607B6818461B
:1005E0000C37BD465DF8047B7047000080B582B0D3
:1005F00000AF786039607B68012B0AD13B684FF609
:10060000FF72934205D10548FFF7DEFF0448FFF76C
:10061000DBFF00BF0837BD4680BD00BF8805002056
:100620009C05002080B500AF4FF6FF710120FFF759
:10063000DDFF80BD80B483B000AF03463960FB713D
:1006400097F90730002B0BDA3B68DAB20C49FB79DB
:1006500003F00F03043B1201D2B20B441A7609E0F7
:100660003B68DAB2074997F907301201D2B20B445E
:1006700083F8002300BF0C37BD465DF8047B70474C
:1006800000ED00E000E100E080B582B000AF7860EE
:100690007B68013BB3F1807F01D301230FE00A4A5D
:1006A0007B68013B53600F214FF0FF30FFF7C2FF23
:1006B000054B00229A60044B07221A60002318465B
:1006C0000837BD4680BD00BF10E000E080B483B0B5
:1006D00000AF87ED010AD7ED017AF0EEE77AB0EED0
:1006E000670A0C37BD465DF8047B704780B582B061
:1006F00000AF87ED010A97ED010A01F01DFFF0EE52
:10070000407AB0EE670A0837BD4680BD80B582B03A
:1007100000AF87ED010A97ED010A01F06DFEF0EEE2
:10072000407AB0EE670A0837BD4680BD80B483B01A
:1007300000AF78607B684FF07E521A607B684FF0A4
:1007400000025A607B684FF000029A607B684FF0AD
:100750000002DA607B684FF07E521A617B684FF0CE
:1007600000025A617B684FF000029A617B684FF08B
:100770000002DA617B684FF07E521A6200BF0C37CC
:10078000BD465DF8047B704780B483B000AF7860ED
:100790007B680C3300221A605A609A607B684FF0C5
:1007A00000021A607B684FF000025A607B684FF0CD
:1007B00000029A607B6818460C37BD465DF8047BE2
:1007C000704780B483B000AF786039607B6893ED88
:1007D000007A3B68D3ED007A77EE277A7B68C3ED29
:1007E000037A7B6893ED017A3B68D3ED017A77EE6B
:1007F000277A7B68C3ED047A7B6893ED027A3B68C5
:10080000D3ED027A77EE277A7B68C3ED057A00BFD5
:100810000C37BD465DF8047B704780B483B000AFF1
:10082000786039607B6893ED007A3B68D3ED007A9D
:1008300077EE677A7B68C3ED007A7B6893ED017A87
:100840003B68D3ED007A77EE677A7B68C3ED017A77
:100850007B6893ED027A3B68D3ED007A77EE677A96
:100860007B68C3ED027A00BF0C37BD465DF8047BA0
:10087000704780B483B000AF786039603B681A6815
:100880007B681A603B685A687B685A603B689A6864
:100890007B689A6000BF0C37BD465DF8047B7047EB
:1008A00080B483B000AF786039603B68002B01D121
:1008B0007B680BE03B68012B02D17B68043305E0C9
:1008C0003B68022B02D17B680833FFE718460C37E0
:1008D000BD465DF8047B704780B582B000AF78609C
:1008E0007B680C331846FFF727FD7B6893ED047A8D
:1008F000DFED106AC7EE267A7B68C3ED007A7B686D
:10090000D3ED037AB1EE677ADFED0A6AC7EE267A95
:100910007B68C3ED017A7B6893ED057ADFED056AAC
:10092000C7EE267A7B68C3ED027A00BF0837BD4662
:1009300080BD00BF0000C84280B582B000AF7860C3
:100940007B680C331846FFF773FC7B68D3ED036AB2
:10095000104B93ED007AC6EE877A7B68C3ED007A80
:100960007B68D3ED046A0B4B93ED007AC6EE877A71
:100970007B68C3ED017A7B68D3ED056A054B93ED87
:10098000007AC6EE877A7B68C3ED027A00BF08372B
:10099000BD4680BDF005002080B483B000AF786014
:1009A0007B684FF000021A607B684FF000025A60CB
:1009B0007B684FF000029A6000BF0C37BD465DF8BF
:1009C000047B704780B582B000AF786039607B6887
:1009D0003A6811461846FFF7F4FE7A687B680C33D4
:1009E00019461046FFF745FF7B6803F118023B6884
:1009F000183319461046FFF7E4FE7B6803F118022E
:100A00007B68243319461046FFF733FF7B6893ED6C
:100A1000187A3B68D3ED187A77EE277A7B68C3EDB6
:100A2000187A00BF0837BD4680BD80B485B000AFDE
:100A3000F860B9607A60BB68002B11D17B68002B2D
:100A400002D1FB681B6821E07B68012B02D1FB68A7
:100A50005B681BE07B68022B17D1FB689B6815E085
:100A6000BB68012B11D17B68002B02D1FB689B690D
:100A70000CE07B68012B02D1FB68DB6906E07B6838
:100A8000022B02D1FB681B6A00E001E007EE903AFE
:100A9000B0EE670A1437BD465DF8047B704780B539
:100AA00082B000AF78607B681846FFF715FF7B685F
:100AB00018331846FFF740FF00BF0837BD4680BD1A
:100AC00080B582B000AF78607B6860331846FFF76E
:100AD0003FFD7B6893ED187A7B68D3ED1A7A77EE49
:100AE000677AB0EE670AFFF7F1FDF0EE407AB1EEFB
:100AF000007AF4EEC77AF1EE10FACCBF012300239E
:100B0000DBB2002B03D07B689A6E7B681A667B6829
:100B10001A6E7B689A6600BF0837BD4680BD00002C
:100B200080B584B000AF78607B684FF000029A66B1
:100B30007B68002283F8D0207B6893F8D0301F2B8D
:100B400022D87B6864331846FFF702FD7B6893ED7B
:100B50001A7A7B68D3ED197A77EE277A7B68C3ED32
:100B60001A7A0023FB73FB7BFF2B04D000BFFB7BB7
:100B70000133FB73F7E77B6893F8D0300133DAB2C7
:100B80007B6883F8D020D7E77B6893ED1A7ADFED96
:100B9000056AC7EE267A7B68C3ED1A7A00BF103764
:100BA000BD4680BD0000004280B582B000AF7860D5
:100BB0007B681846FFF7F0FE7B6818331846FFF78E
:100BC000EBFE7B684FF000021A6600BF0837BD4697
:100BD00080BD80B582B000AF78607B683033184646
:100BE000FFF7DAFE7B6848331846FFF7D5FE7B68CF
:100BF0004FF000025A6600BF0837BD4680BD2DE9A0
:100C0000F04385B000AFF86087ED020AC7ED010A36
:100C1000FB68002283F8D020FB6893F8D030022BC9
:100C200000F2AF80FA68FB6893F8D030194610469E
:100C3000FFF736FE06463368184605F099FA8046F7
:100C40008946FB6893F8D030FA6807331B011344D8
:100C5000D3E90045B86805F08BFA02460B462046FA
:100C6000294605F0DDFA02460B4610461946FB6898
:100C700093F8D030FA681B0113447833D3E900238A
:100C800005F018F902460B4614461D4697ED027A08
:100C9000D7ED017A77EE677A17EE900A05F068FAD9
:100CA00002460B462046294605F0BAFA02460B4694
:100CB0004046494605F0FCF802460B4610461946E8
:100CC00005F086FD03463360FB6803F11802FB68FC
:100CD00093F8D03019461046FFF7E2FD0646336818
:100CE000184605F045FA80468946FB6893F8D030EF
:100CF000FA680A331B011344D3E90045B86805F0CC
:100D000037FA02460B462046294605F089FA024684
:100D10000B4610461946FB6893F8D030FA681B0161
:100D20001344A833D3E9002305F0C4F802460B4668
:100D300014461D4697ED027AD7ED017A77EE677A71
:100D400017EE900A05F014FA02460B462046294693
:100D500005F066FA02460B464046494605F0A8F8FB
:100D600002460B461046194605F032FD0346336035
:100D7000FB6893F8D0300133DAB2FB6883F8D020F7
:100D80004AE700BF1437BD46BDE8F0832DE9F043C4
:100D900085B000AFF86087ED020AC7ED010AFB6875
:100DA000002283F8D020FB6893F8D030022B00F2A9
:100DB000B180FB6803F13002FB6893F8D03019462C
:100DC0001046FFF76DFD06463368184605F0D0F96A
:100DD00080468946FB6893F8D030FA6807331B01D8
:100DE0001344D3E90045B86805F0C2F902460B4642
:100DF0002046294605F014FA02460B4610461946CD
:100E0000FB6893F8D030FA681B0113447833D3E9B8
:100E1000002305F04FF802460B4614461D4697ED99
:100E2000027AD7ED017A77EE677A17EE900A05F02D
:100E30009FF902460B462046294605F0F1F9024685
:100E40000B464046494605F033F802460B4610462D
:100E5000194605F0BDFC03463360FB6803F1480208
:100E6000FB6893F8D03019461046FFF719FD064687
:100E70003368184605F07CF980468946FB6893F88C
:100E8000D030FA680A331B011344D3E90045B8682F
:100E900005F06EF902460B462046294605F0C0F9DA
:100EA00002460B4610461946FB6893F8D030FA68A4
:100EB0001B011344A833D3E9002304F0FBFF0246CF
:100EC0000B4614461D4697ED027AD7ED017A77EE70
:100ED000677A17EE900A05F04BF902460B4620465A
:100EE000294605F09DF902460B464046494604F066
:100EF000DFFF02460B461046194605F069FC034623
:100F00003360FB6893F8D0300133DAB2FB6883F8C2
:100F1000D02048E700BF1437BD46BDE8F08380B459
:100F200083B000AF78607B6818460C37BD465DF82B
:100F3000047B704780B582B000AF786039607B6811
:100F400008223968184605F0CBFC00BF0837BD46BB
:100F500080BD80B582B000AF786039603868FFF737
:100F6000DEFF7B6844330822194605F087FC034600
:100F7000002B0CBF01230023DBB2002B02D07B68C7
:100F8000DB6C31E03868FFF7CAFF7B68503308221A
:100F9000194605F073FC0346002B0CBF0123002308
:100FA000DBB2002B02D07B689B6D1DE03868FFF739
:100FB000B6FF7B685C330822194605F05FFC0346E8
:100FC000002B0CBF01230023DBB2002B02D07B6877
:100FD0005B6E09E001F018F9072001F031F90020FB
:100FE00001F02EF97B681B6F18460837BD4680BD9F
:100FF00090B583B000AF78607B6803F175047B68BF
:101000001846FFF78CFF034619462046FFF792FF6C
:101010007B68012283F874207B6893F87430072B77
:101020001DD87B6893F87430013BDB007A68D418D4
:101030007B6893F87430DB007A6813441846FFF736
:101040006EFF034619462046FFF774FF7B6893F84E
:1010500074300133DAB27B6883F87420DCE77B6894
:1010600093F94030DBB2013BDBB25AB27B6883F8C4
:1010700040207B68753319467868FFF76AFF03469E
:1010800018460C37BD4690BD80B483B000AF786081
:101090007B6893F94030B3F1FF3F0CBF012300237D
:1010A000DBB218460C37BD465DF8047B7047000084
:1010B00080B584B000AFF860B9607A60FB68002248
:1010C0009A70FB689B78022B39D8FB689B7819468D
:1010D000B868FFF7E5FB0346D3ED007A9FED1A7A77
:1010E00067EE877AB0EE670AFFF710FBF0EE407A02
:1010F000FDEEE77A17EE903A1AB2FB681A80FB68A9
:10110000B3F90020FB689B785B0019467B680B44B1
:10111000D2B21A70FB68B3F900301B121AB2FB6826
:101120009B785B00013319467B680B44D2B21A707E
:10113000FB689B780133DAB2FB689A70C1E700BFA5
:101140001037BD4680BD00BF00007A4480B584B032
:1011500000AFF860B9607A60BB687A681946F868D1
:10116000FFF7A6FFBB6803F118017B6806331A4638
:10117000F868FFF79DFF00BF1037BD4680BD000037
:1011800080B483B000AF78607B68064A106818604E
:101190007B6800221A757B6818460C37BD465DF8DF
:1011A000047B7047B86A000880B58AB000AFF86069
:1011B000B9607A6007F110031846FFF7E1FFBB68DA
:1011C0001AB2FB681A80FB68B3F9002007F110031C
:1011D0000433D2B21A70FB68B3F900301B121AB292
:1011E00007F110030533D2B21A7007F1100306336A
:1011F0001A467968F868FFF7A9FF7B68D3ED187A7B
:101200009FED2A7A67EE877AB0EE670AFFF77EFADB
:10121000F0EE407AFDEEE77A17EE903A1AB2FB68EC
:101220001A80FB68B3F9002007F110031233D2B221
:101230001A70FB68B3F900301B121AB207F11003E1
:101240001333D2B21A70FB6800221A80FB680022A6
:101250009A70FB689B78132B17D8FB68B3F90030A2
:101260009AB2FB689B78194607F110030B441B7870
:101270009BB213449BB21AB2FB681A80FB689B783E
:101280000133DAB2FB689A70E3E7FB68B3F9003028
:10129000DBB287F8243007F110031521184604F05B
:1012A00009F900BF2837BD4680BD00BF0000C84215
:1012B00080B584B000AFF860B9601346FB71FB796C
:1012C0001946B86804F0F6F800BF1037BD4680BD77
:1012D00080B582B000AF78607B681846FFF754FA9B
:1012E0007B6818331846FFF74FFA7B68303318468F
:1012F000FFF74AFA7B6848331846FFF745FA7B68E0
:10130000703330220021184605F084FB7B68A0333F
:1013100030220021184605F07DFB7B68184608370F
:10132000BD4680BD80B582B000AF78607B6818464E
:1013300024231A46002105F06DFB7B682433242208
:101340000021184605F066FB7B680022A3F84820C0
:101350007B6818460837BD4680BD80B584B000AFB5
:10136000F86087ED020AC7ED010AFB681846FFF72F
:10137000AFFFFB68D8331846FFF7AAFFFB6803F5F9
:10138000D8731846FFF7A4FFFB6803F522731846CD
:10139000FFF7C8FFFB6803F535731846FFF7C2FF78
:1013A000FB6803F548731846FFF7BCFFFB6803F5BD
:1013B0005C731846FFF7E8F9FB6803F5627318469B
:1013C000FFF7E2F9FB6803F568731846FFF7DCF9ED
:1013D000FB684FF00002C3F8B823FB68002283F8D3
:1013E000BC23FB68002283F8BD23FB68002283F83E
:1013F000BE23FB684FF00002C3F8CC23FB6803F563
:10140000747300221A605A609A60FB680022C3F865
:10141000DC29FB68002283F8202AFB68BA68C3F83D
:101420006C23FB687A68C3F8C023FB6803F5487334
:101430001846FFF77BF9FB6818461037BD4680BD9C
:1014400080B582B000AF78607B6893F8BC33002B26
:1014500013D0022000F0F4FE786800F05BF97868A1
:1014600000F0F3F9022000F0F8FE7B68012283F817
:10147000BE237B68002283F8BC237B6893F8203A64
:10148000002B33D07B6893ED847A7B68D3ED4E7A62
:1014900077EE677AB0EE670AFFF718F9F0EE407A58
:1014A000B0EE007AF4EEC77AF1EE10FACCBF012369
:1014B0000023DBB2002B15D07B68D3F810227B68A9
:1014C000C3F838217B6803F1D8027B68D3ED847AB6
:1014D0007B6893ED4E7AF0EE470AB0EE670A10464D
:1014E000FFF78DFB7B68002283F8202A7B6893F846
:1014F000BE33002B13D0052000F0A2FE7B68D3F88A
:10150000C4137B6803F5D8731A460748FFF74CFEEF
:10151000052000F0A2FE7B68002283F8BE2300BFF6
:101520000837BD4680BD00BFF805002080B582B0F9
:1015300000AF7860012000F083FE062000F080FEFE
:10154000786800F03BF8012000F087FE062000F0EC
:1015500084FE00BF0837BD4680BD80B582B000AFB5
:1015600078607B681846FFF79AFA7B681846FFF7A1
:10157000A7FA00BF0837BD4680BDB0B582B000AF46
:1015800078603960786804F0E1FD04460D463868FB
:1015900004F0DCFD02460B4643EC112B45EC104BEE
:1015A00000F052FFB0EE407AF0EE607AB0EE470AFB
:1015B000F0EE670A0837BD46B0BD000080B584B0C4
:1015C00000AF78607B68D8331846FFF7A9FA7B68CC
:1015D000D8331846FFF7E8FA7B68D8331846FFF788
:1015E000F8FA7B68D3F840217B68C3F83C217B681C
:1015F000D3F840217B68C3F818227B68D3F84021D8
:101600007B689A660A210220FFF7B7FF53EC102B84
:101610001046194605F0B4F80346BB600023FB6092
:10162000FA68BB689A426EDA786800F073F87868F6
:1016300000F00BF97B6893F8203A002B33D07B68DD
:1016400093ED847A7B68D3ED4F7A77EE677AB0EECC
:10165000670AFFF73BF8F0EE407AB7EE007AF4EE57
:10166000C77AF1EE10FACCBF01230023DBB2002BC6
:1016700015D07B68D3F810227B68C3F83C217B68C7
:1016800003F1D8027B68D3ED847A7B6893ED4F7ABF
:10169000F0EE470AB0EE670A1046FFF777FB7B686B
:1016A000002283F8202A7B6803F5D8727B6803F553
:1016B000847319461046FFF7B0F87B6803F5E472AF
:1016C0007B6803F5907319461046FFF7A6F87B6810
:1016D00003F1D8027B6803F5D87319461046FFF76B
:1016E00071F97B68D3F8C433591C7A68C2F8C41303
:1016F0007A6802F5D87219460548FFF755FDFB6870
:101700000133FB608CE700BF1037BD4680BD00BFD2
:10171000F8050020B0B582B000AF78607B68002289
:10172000A3F8B02C7B68B3F8B03C3F2B5AD87B6849
:101730001846FFF7B4F97B680022A3F8B22C7B6847
:10174000B3F8B23C022B44D878687B68B3F8B23C5B
:101750001A467B68B3F8B03C1C467B68B3F8B23CD1
:101760001D460021FFF761F9F0EE407A7A682346C2
:101770005B0023445B002B44F6339B00134404338B
:10178000C3ED007A78687B68B3F8B23C1A467B6890
:10179000B3F8B03C1C467B68B3F8B23C1D4601214F
:1017A000FFF743F9F0EE407A7A6823465B00234462
:1017B0005B002B44F8339B0013440833C3ED007ADD
:1017C0007B68B3F8B23C01339AB27B68A3F8B22CC1
:1017D000B5E77B68B3F8B03C01339AB27B68A3F8F5
:1017E000B02C9FE77B681846FFF76AF97B68D3F84F
:1017F000DC39591C7A68C2F8DC197A68126E79688B
:1018000003F51E739B000B441A607B68D3F8DC3928
:10181000102B16D17B6803F51E63102219467868D9
:1018200000F091FA7B6803F6B4431A687B68C3F84A
:1018300010227B680022C3F8DC297B68012283F830
:10184000202A00BF0837BD46B0BD80B582B000AFCA
:1018500078600021786800F018F80121786800F0BD
:1018600014F80221786800F010F80021786800F080
:10187000C2F80121786800F0BEF80221786800F013
:10188000BAF800BF0837BD4680BD80B582B000AF52
:10189000786039607B680022C3F8AC2C7B6800223A
:1018A000C3F8A82C7B680022A3F8B02C7B68B3F89F
:1018B000B03C032B00F281807B680022A3F8B22C9D
:1018C0007B68B3F8B23C0F2B27D87B68D3F8AC3CCD
:1018D0001B017A68B2F8B22C1A447B68B3F8B23CA8
:1018E0001846796813465B0013445B003A6813445A
:1018F000F6339B000B4404331A68796800F546738D
:101900009B000B4404331A607B68B3F8B23C01338C
:101910009AB27B68A3F8B22CD2E77B680022C3F8A6
:10192000A42C786800F01DF97B680022A3F8B22C83
:101930007B68B3F8B23C1A467B68D3F8A43C9A4261
:1019400021DA7B68B3F8B23C18467B68D3F8A83C30
:101950007A68B2F8B22C1344796800F542729200AA
:101960000A4404321268796803F532739B000B4411
:1019700004331A607B68B3F8B23C01339AB27B68D7
:10198000A3F8B22CD4E77B68D3F8A82C7B68D3F8F3
:10199000A43C1A447B68C3F8A82C7B68D3F8AC3C01
:1019A0005A1C7B68C3F8AC2C7B68B3F8B03C01339D
:1019B0009AB27B68A3F8B02C78E7786800F050F909
:1019C0007B6803F624217B68D3F8A43C1A46786828
:1019D00000F0B9F97B6803F5D87339681846FEF74B
:1019E0005FFF02467B6803F6B4431B68136000BFC9
:1019F0000837BD4680BD80B582B000AF78603960E1
:101A00007B680022C3F8AC2C7B680022C3F8A82CAA
:101A10007B680022A3F8B02C7B68B3F8B03C032BA2
:101A200000F281807B680022A3F8B22C7B68B3F8B7
:101A3000B23C0F2B27D87B68D3F8AC3C1B017A68EB
:101A4000B2F8B22C1A447B68B3F8B23C18467968F5
:101A500013465B0013445B003A681344F8339B0061
:101A60000B4408331A68796800F546739B000B44F1
:101A700004331A607B68B3F8B23C01339AB27B68D6
:101A8000A3F8B22CD2E77B680022C3F8A42C7868B4
:101A900000F067F87B680022A3F8B22C7B68B3F8EB
:101AA000B23C1A467B68D3F8A43C9A4221DA7B68A0
:101AB000B3F8B23C18467B68D3F8A83C7A68B2F811
:101AC000B22C1344796800F5427292000A44043241
:101AD0001268796803F532739B000B4404331A6073
:101AE0007B68B3F8B23C01339AB27B68A3F8B22C9E
:101AF000D4E77B68D3F8A82C7B68D3F8A43C1A44BD
:101B00007B68C3F8A82C7B68D3F8AC3C5A1C7B6874
:101B1000C3F8AC2C7B68B3F8B03C01339AB27B6855
:101B2000A3F8B02C78E7786800F09AF87B6803F6A1
:101B300024217B68D3F8A43C1A46786800F003F9A6
:101B40007B6803F5E47339681846FEF7A9FE024680
:101B50007B6803F6B4431B68136000BF0837BD46BB
:101B600080BD80B584B000AF78607B6803F66443C5
:101B700010221946786800F0E6F87B6803F6B44353
:101B80001B68FB607B6803F66443102297ED030A31
:101B90001946786800F022F97B6803F6B4431B68A5
:101BA000BB607B680022A3F8B22C7B68B3F8B23C20
:101BB0000F2B51D87B68B3F8B23C7A6803F54673B3
:101BC0009B001344043393ED007AD7ED027A77EE4D
:101BD000A77AD7ED036A76EEE77AB4EEE77AF1EE0C
:101BE00010FA30DD7B68B3F8B23C7A6803F54673CF
:101BF0009B001344043393ED007AD7ED027A77EE1D
:101C0000A76AD7ED037A76EEA77AB4EEE77AF1EE1B
:101C100010FA18D57B68B3F8B23C18467B68D3F845
:101C2000A43C591C7A68C2F8A41C796800F5467275
:101C300092000A4404321268796803F542739B00EB
:101C40000B4404331A607B68B3F8B23C01339AB298
:101C50007B68A3F8B22CA8E700BF1037BD4680BD53
:101C600080B485B000AF78607B68D3F8A83CDA1EFA
:101C70007B68C3F8A42C7B6803F6B4434FF00002E2
:101C80001A607B680022A3F8B22C7B68B3F8B23CE0
:101C90001A467B68D3F8A43C9A424EDA0023FB60D4
:101CA000FB68032B1DDC7B6803F6B44393ED007ADD
:101CB0007B68B3F8B23C1A46FB6813447A6803F5B4
:101CC00032739B0013440433D3ED007A77EE277A06
:101CD0007B6803F6B443C3ED007AFB680133FB6015
:101CE000DEE77B6803F6B44393ED007AF1EE006A19
:101CF000C7EE267A7B6803F6B443C3ED007A7B68AF
:101D0000B3F8B23C18467B6803F6B4431A687968A6
:101D100000F522739B000B4404331A607B6803F6C2
:101D2000B4434FF000021A607B68B3F8B23C013351
:101D30009AB27B68A3F8B22CA7E700BF1437BD4660
:101D40005DF8047B704780B485B000AFF860B9607F
:101D50007A60FB6803F6B4434FF000021A60FB6838
:101D60000022A3F8B22CFB68B3F8B23C1A467B6899
:101D700093421CDDFB6803F6B44393ED007AFB68E5
:101D8000B3F8B23C9B00BA681344D3ED007A77EE07
:101D9000277AFB6803F6B443C3ED007AFB68B3F817
:101DA000B23C01339AB2FB68A3F8B22CDBE7FB68C4
:101DB00003F6B443D3ED006A7B6807EE903AB8EEC1
:101DC000E77AC6EE877AFB6803F6B443C3ED007A80
:101DD00000BF1437BD465DF8047B704780B584B002
:101DE00000AFF860B96087ED010A3A60FB6803F65E
:101DF000B4434FF000021A60FB680022A3F8B22C33
:101E0000FB68B3F8B23C1A463B6893422EDDFB6890
:101E100003F6B44393ED007AFB68B3F8B23C9B0041
:101E2000BA681344D3ED006AD7ED017A76EEE76A1B
:101E3000FB68B3F8B23C9B00BA68134493ED006AA8
:101E4000D7ED017A76EE677A66EEA77A77EE277A93
:101E5000FB6803F6B443C3ED007AFB68B3F8B23C09
:101E600001339AB2FB68A3F8B22CC9E7FB6803F60A
:101E7000B44393ED007A3B6807EE903AF8EEE77AC8
:101E8000C7EE276AB0EE660AFEF730FCF0EE407A45
:101E9000FB6803F6B443C3ED007A00BF1037BD46BC
:101EA00080BD000080B483B000AF78607B681A46C4
:101EB00000231360536093607B687E221A707B68F6
:101EC000E7225A707B68FF229A707B68AB22DA7037
:101ED0007B68BA221A717B68C9225A717B68244ACE
:101EE0009A607B680C3300221A605A609A607B68A3
:101EF0007E221A737B68E7225A737B68FF229A73EB
:101F00007B68BC22DA737B68CB221A747B68EB2275
:101F10005A747B68174A5A617B68183300221A602A
:101F20005A609A607B687E221A767B68E7225A762E
:101F30007B68FF229A767B68CD22DA767B68DC228A
:101F40001A777B680D225A777B680B4A1A627B6886
:101F5000243300221A605A609A607B68074ADA626A
:101F60007B6818460C37BD465DF8047B704700BFA0
:101F7000D9220008F1220008092300082D230008B7
:101F800080B582B000AF78607B68FF2283F8402084
:101F90007B6844331846FFF785FF7B68184608378F
:101FA000BD4680BD80B582B000AF78607B680433E9
:101FB0001846FFF7E5FF7B6818460837BD4680BD29
:101FC00080B500AF72B600BF62B600BF3B4801F0FB
:101FD000CFFB3A4B5B683A4AA2FB03239B091846A6
:101FE000FEF752FB0346002B14BF01230023DBB294
:101FF000002B00D0FEE700F073F800F09DF83148A8
:10200000FFF742F8034683F00103DBB2002B04D054
:102010002C48FEF7EDFF034698472B4B1B68032B1C
:1020200030D0032BEBD8012B02D0022B11D044E08F
:10203000264B1B68012B08D0244B01221A6000217B
:10204000234801F0EBFE00F0C3F82248FFF785FAC1
:1020500033E01E4B1B68022B08D01C4B02221A6077
:102060001C4B0022C3F8C42300F0CEF81948FFF738
:102070005DFA082218491948FFF71AF9124B012294
:102080001A601AE0114B1B68032B0AD00F4B032276
:102090001A60104B0022C3F8C42301210C4801F040
:1020A000BDFE00F0B1F8032000F0CAF8042000F0F3
:1020B000C7F80848FFF7C4F900BFA0E7B005002043
:1020C000D34D6210FC05002014000020F405002010
:1020D00000080040800600200C000020F8050020C9
:1020E00080B500AF00F00CF803F0B9FE03F0ABFED2
:1020F000FEF75EF8FEF7F8F800F0BCF800BF80BD10
:1021000080B500AF012001F0C9FE002001F0C6FE3D
:10211000022001F0C3FE042001F0C0FE062001F001
:10212000BDFE072001F0BAFE052001F0B7FE032036
:1021300001F0B4FE00BF80BD80B500AF002001F00B
:10214000DBFE642000F004F9002001F0EFFE012026
:1021500001F0D2FE642000F0FBF8012001F0E6FE61
:10216000032001F0C9FE642000F0F2F8032001F022
:10217000DDFE052001F0C0FE642000F0E9F8052036
:1021800001F0D4FE072001F0B7FE642000F0E0F873
:10219000072001F0CBFE062001F0AEFE642000F027
:1021A000D7F8062001F0C2FE042001F0A5FE64204D
:1021B00000F0CEF8042001F0B9FE022001F09CFEF0
:1021C000642000F0C5F8022001F0B0FE00BF80BD21
:1021D00080B500AF002001F08FFE012001F08CFEE1
:1021E000022001F089FE032001F086FE042001F0A8
:1021F00083FE052001F080FE062001F07DFE072011
:1022000001F07AFE00BF80BD80B500AF002001F074
:102210008DFE012001F08AFE022001F087FE0320DE
:1022200001F084FE042001F081FE052001F07EFE15
:10223000062001F07BFE072001F078FE00BF80BD84
:1022400080B582B000AF0346FB71FB79184601F000
:1022500053FE00BF0837BD4680BD80B582B000AFD9
:102260000346FB71FB79184601F060FE00BF08379A
:10227000BD4680BD80B586B000AF0121042001F0CD
:10228000DBFC1E233B7400237B740023BB740123FF
:10229000FB7407F11003184601F006FA4FF434738B
:1022A000FB823B1D184601F09FFDFB8A013B9BB260
:1022B000BB8046F2A813BB603B1D1946054801F0E0
:1022C0001BFD01220121034801F0C8FD00BF1837A2
:1022D000BD4680BD0008004080B400AF034B022221
:1022E0001A6000BFBD465DF8047B704714000020F3
:1022F00080B400AF034B03221A6000BFBD465DF8F7
:10230000047B70471400002080B400AF054B01220D
:102310001A60054B0022C3F8C42300BFBD465DF818
:10232000047B7047140000208006002080B500AFB9
:10233000082205490548FEF7BBFF4FF47A7000F00C
:1023400007F800BF80BD00BF04000020F805002092
:1023500080B483B000AF78607B68094A1360084B93
:102360001B68002B14BF01230023DBB2002B00D01D
:10237000F5E700BF0C37BD465DF8047B704700BF32
:10238000EC05002080B400AF00231846BD465DF880
:10239000047B704780B400AF00231846BD465DF84B
:1023A000047B704780B582B000AF786039607B688D
:1023B000012B0ED13B684FF6FF72934209D10748BB
:1023C000FFF7F0FDF5EE000A9FED050A0548FEF760
:1023D000C4FF00BF0837BD4680BD00BFF805002020
:1023E0006D1A793F8006002080B500AF4FF6FF716F
:1023F0000120FFF7D7FF80BD10EE103AC3F3C7529C
:102400007F3A162A10EE101A15DC002A0CDB0C4855
:102410001041034205D04FF4800313410B4423EADB
:10242000000300EE103A7047013203F00043F8D188
:1024300043F07E53F5E7802AF3D130EE000A70476F
:10244000FFFF7F0000000000F8B52DED028B55EC7A
:10245000114B57EC106B00F093F822462B462046A8
:102460002946B0EE408AF0EE608A04F073F978B93C
:10247000002200233046394604F03AF9F0B1002238
:1024800000232046294604F033F940B19FED288B04
:10249000B0EE480AF0EE680ABDEC028BF8BD45ECE0
:1024A000104B00F037FF0028F2D0204629460022CA
:1024B000002304F027F90028EAD02EE0B0EE480A05
:1024C000F0EE680A00F026FFA0B151EC180B0022D4
:1024D000002304F00DF90028DAD047EC106B00F06F
:1024E00019FF0028D4D045EC104B00F013FF002852
:1024F000CED012E047EC106B00F00CFF0028E4D0C7
:1025000045EC104B00F006FF0028DED053EC182BF2
:1025100051EC180B04F01EF920B904F0A9F922239C
:102520000360B5E704F0A4F921230360B0E700BF1E
:10253000000000000000F03F08B52DED028BB0EE6A
:10254000408A00F0A3FEB4EE488AF1EE10FA06D6F7
:10255000DFED098AB4EEE88AF1EE10FA02D4BDECA0
:10256000028B08BD04F084F988EEA80ABDEC028B4A
:102570002123036008BD00BF000000000000000030
:102580002DE9F04F55EC114B2DED0C8B25F0004A49
:102590005AEA040157EC106B87B015D1B3197E4885
:1025A00087F400225241994270EB020324D2224662
:1025B0002B463046394603F07DFC41EC100B07B04A
:1025C000BDEC0C8BBDE8F08F744927F000498945BC
:1025D00010EE102AB84616DD08F1404808F58018BC
:1025E00058EA0208E3D123196B4985F400225241CD
:1025F000984571EB0203DAD39FED650B07B0BDEC94
:102600000C8BBDE8F08F11EE103AAB4642D0634917
:102610008A45E1DC00F09480B8F1000F73DB002103
:1026200000917BB95D4B9A4500F08E805C4B9A45DA
:1026300000F0A280BBF1804F00F0C284594B9B4553
:1026400000F0D78347EC106B029200F059FE029A1B
:1026500062B3009A4FEAD873013B0493134300F02E
:102660009280514B9A4540F3A58003F104739A453B
:102670004E4B40F33F84994540F3B484BBF1000FC7
:1026800040F3B484002007B0BDEC0C8BBDE8F04FE4
:1026900000F02CBE002E8AD1B9E747EC106B0092F7
:1026A00000F02EFE009A002A6DD10092B9F1000FC1
:1026B00004D03B4B28F040429A42CAD1BBF1000FF4
:1026C00007DA53EC102B3649002003F0D3FE41EC1F
:1026D000100BB8F1000FBFF672AF009B09F1404933
:1026E00009F5801959EA030340F0908453EC102B4C
:1026F0001046194603F0DCFB02460B4603F0BAFE17
:1027000041EC100B5BE72A498A452FDCA1F154719B
:102710008A450FDD4FEA2A51A1F2FF31142940F317
:102720006784C1F1340123FA01F000FA01F1994202
:1027300000F0A58400210091002B3FF477AF81E7E2
:10274000002B3FF469AF47E709F1404303F58013DD
:1027500013433FF451AF154B994540F38483BBF1CC
:10276000000FC0F2618445EC104B28E70221009174
:10277000002B3FF457AF65E7BBF1000FC0F21684A2
:1027800047EC106B1BE732463B46B1E7AFF30080E6
:10279000000000000000F03F0000F0FF0000F07FAC
:1027A0000000F03F0000E03F0000E041FFFFEF3F8E
:1027B000FFFF3F43E44B08EA0303002253B951EC07
:1027C000100BE24B03F02CFD41EC100B10EE909A35
:1027D0006FF034024FEA2953A3F2FF339A18DC4B0F
:1027E0000592C9F3130949F07F56994546F44016FE
:1027F00007DDD84B994540F31B8401320592A6F5BD
:1028000080169FEDB96B9FEDBA7B53EC162BB0EEA3
:1028100047CAF0EE67CA0027B0EE47DAF0EE67DA93
:102820005BEC10ABB3465046594643EC1A2B03F011
:102830003FFB53EC1A2B804689465046594603F01D
:1028400039FB02460B460020C34903F013FE41EC5E
:102850001B0B404653EC1B2B494603F0E1FC41ECBB
:10286000180B0A460146CDE90212002102917610AA
:102870004BEC19AB46F00056DDE902AB06F5002340
:102880000020D91906460F4602460B4650465946C7
:1028900003F0C6FC02460B464046494603F008FBDF
:1028A00053EC1A2B804689463046394603F000FB2C
:1028B00002460B4651EC190B03F0FAFA52465B46FE
:1028C00003F0AEFC02460B464046494603F0F0FAE0
:1028D00053EC1B2B03F0A4FC53EC182B41EC1B0B0B
:1028E00051EC180B03F09CFC83A3D3E900230646AC
:1028F0000F4603F095FC82A3D3E9002303F0DAFA34
:1029000032463B4603F08CFC7FA3D3E9002303F05F
:10291000D1FA32463B4603F083FC7DA3D3E9002382
:1029200003F0C8FA32463B4603F07AFC7AA3D3E9B7
:10293000002303F0BFFA32463B4603F071FC78A354
:10294000D3E9002303F0B6FA3246804689463B4677
:102950003046394603F064FC02460B464046494681
:1029600003F05EFC524606460F465B4651EC180BE0
:1029700003F0A0FA53EC1B2B03F052FC32463B460B
:1029800003F098FA524641EC1A0B5B465046594602
:1029900003F046FC714B00228046894603F08AFA18
:1029A00053EC1A2B03F086FA50460F465946DDE9E0
:1029B00002AB3B46524603F033FC684B41EC190B2B
:1029C00000225046394603F073FA42464B4603F064
:1029D0006FFA02460B4651EC1A0B03F069FA53ECFE
:1029E000182B03F01DFC52463B4606460F4651ECA1
:1029F0001B0B03F015FC02460B463046394603F02C
:102A000059FA8046894642464B4651EC190B03F071
:102A100051FA45A3D3E9002350460F4603F000FCCA
:102A200053EC192B41EC190B5046394603F040FA90
:102A300002460B464046494603F03AFA3CA3D3E926
:102A4000002303F0EDFB02460B461646504639467E
:102A50001F4639A3D3E9002303F0E2FB02460B46ED
:102A60003046394603F026FA53EC1D2B03F022FAC8
:102A700080460598894603F069FB424682468B46AC
:102A80004B4651EC190B03F015FA53EC1C2B03F0D9
:102A900011FA52465B4603F00DFA52465B4600209F
:102AA00006460F4603F004FA53EC1C2B03F000FA21
:102AB00053EC192B03F0FCF902460B4640464946FD
:102AC00003F0F6F9009B049A013B134382468B46C0
:102AD00040F0C2819FED1A7BB0EE478AF0EE678A24
:102AE0003EE000BFAFF30080000000000000F03FB8
:102AF0000000000000000000EF4E454A287ECA3F5B
:102B000065DBC9934A86CD3F01411DA96074D13F61
:102B10004D268F515555D53FFFAB6FDBB66DDB3F73
:102B2000033333333333E33F000000E009C7EE3FA4
:102B3000FD033ADC09C7EE3FF5015B14E02F3EBE12
:102B4000000000000000F0BF0000F07F00004043E4
:102B50008E98030079B60B000000F03F000008409B
:102B60000023CDE900450093DDE900892046424677
:102B70004B46294603F09CF932463B4603F050FB96
:102B800022462B4604460D465046594603F048FB64
:102B900002460B462046294603F08CF9424604467D
:102BA0000D464B463046394603F03AFB26462F4643
:102BB00004460D462B4630463946224603F07AF944
:102BC000C74B9942804689468A4640F31F8101F1EE
:102BD0003F4303F5E003034340F03E82AAA3D3E959
:102BE00000233046394603F065F902460B4640465D
:102BF00049469046994622462B4603F059F902462B
:102C00000B464046494603F09BFD002840F02482D5
:102C1000CAF30A534FF48012A3F2FE3342FA03F3CD
:102C20005344B049C3F30A52A2F2FF3241FA02FC04
:102C3000C3F3130141F48011C2F1140241FA02F20C
:102C4000002023EA0C01BAF1000F00920B46024665
:102C500002DA0099494200912046294603F028F9FA
:102C6000009B1B05029302460B4604460D46304668
:102C7000394603F01FF989464FF0000884A3D3E9D1
:102C800000234046494603F0CBFA22462B468246B3
:102C90008B464046494603F00BF902460B46304648
:102CA000394603F005F97CA3D3E9002303F0B8FA11
:102CB0007BA3D3E9002304460D464046494603F072
:102CC000AFFA02460B462046294603F0F3F80646C3
:102CD0000F4632463B465046594603F0EBF8524603
:102CE0005B4604460D4603F0E3F802460B463046C9
:102CF000394603F0DDF82246804689462B462046B9
:102D0000294603F08DFA68A3D3E9002306460F464F
:102D100003F086FA66A3D3E9002303F0C9F832462C
:102D20003B4603F07DFA64A3D3E9002303F0C2F825
:102D300032463B4603F074FA61A3D3E9002303F063
:102D4000B7F832463B4603F06BFA5FA3D3E90023A2
:102D500003F0B0F832463B4603F062FA02460B46F7
:102D60002046294603F0A4F806460F4632463B4665
:102D70002046294603F054FA02460B4630463946AF
:102D800016461F4600224FF0804303F091F802469A
:102D90000B463046394603F06DFB424606460F4669
:102DA0004B462046294603F03BFA42464B4603F089
:102DB00081F802460B463046394603F079F8224640
:102DC0002B4603F075F802460B460020464903F0F7
:102DD0006FF8029A0B461344B3F5801FC0F2478187
:102DE000194653EC182B03F01BFA41EC100BFFF7BC
:102DF000E6BBB8F1000FFFF625AC47EC106B07B04F
:102E0000BDEC0C8BBDE8F04F00F074B9DFF8E0C00A
:102E100021F00043634540F3DD80344B0B44034312
:102E20000AD122462B4603F043F832463B4603F0D4
:102E30007DFC00283FF4ECAE51EC180B002200237F
:102E400003F060FC003818BF012007B0BDEC0C8B0C
:102E5000BDE8F04F00F040BA9FED1D7BB0EE478A11
:102E6000F0EE678A7CE6BBF1000F9FED1B0BBFF60F
:102E7000A6AB05F1004300EE104A00EE903AFFF7D2
:102E80009EBB00BFAFF30080FE822B654715973CC9
:102E900000000000432EE63FEF39FAFE422EE63FE7
:102EA000396CA80C615C20BED0A4BE726937663E46
:102EB000F16BD2C541BDBB3E2CDE25AF6A56113F3A
:102EC00093BDBE166CC1663F3E5555555555C53F21
:102ED000000000000000F03F0000000000000000C3
:102EE000FFFF8F40FFFF0F000000F03F00346F3FF7
:102EF000FFCB9040994575DB7B4B99453FF7BEABC7
:102F000051EC100B784B002202F0D2FF66A3D3E9FC
:102F1000002306460F4603F083F965A3D3E9002397
:102F200082468B463046394603F07AF96F4B41ECC6
:102F3000180B00223046394603F072F902460B4660
:102F40005DA1D1E9000102F0B3FF32463B4603F038
:102F500067F902460B460020654902F0A9FF324698
:102F6000804689463B463046394603F059F90246C9
:102F70000B464046494603F053F951A3D3E90023D9
:102F800003F04EF902460B4651EC180B02F090FF8D
:102F90008046894642464B465046594602F08AFFD3
:102FA000002052465B4606460F4683E54E49002008
:102FB00032463B4603F05EFA41EC100BFFF7FFBAD6
:102FC00032463B463046394603F02AF941EC100BB5
:102FD000FFF7F5BA464A934262DCDDE9001202913E
:102FE000009149E6BBF1000FFFF64CAB00202CE747
:102FF000002B7FF452ABC1F114014AFA01F000FA40
:1030000001F1514545D00093FFF710BB009B012B08
:103010007FF4D5AA10EE901A10EE102A01F10043A9
:1030200043EC102BFFF7CBBA9FED270BFFF7C7BA86
:103030009FED277BB0EE47CAF0EE67CA9FED267B77
:10304000B0EE47DAF0EE67DA9FED257B4FF480278C
:1030500053EC172BFFF7E4BB51EC180B00220023B5
:1030600003F050FB003818BF0120FFF70CBB41EC08
:10307000100B009800F05CF951EC100BB1E600F079
:103080000100C0F102010091002B3FF4CFAAFFF72D
:10309000D9BA00F00100C0F102030093FFF7C6BAED
:1030A0001B15B7E5AFF30080000000604715F73F40
:1030B00044DF5DF80BAE543E555555555555D53F3B
:1030C000FE822B654715F73F00000000000000005E
:1030D0000000004003B8E23F06D0CF43EBFD4C3E7A
:1030E000000000000000F83F0000F03F0000D03F6B
:1030F0000000E03F2DE9F041634A55EC104BAA4334
:1031000000F09F80002D10EE10CA2B4654DD2915CB
:1031100063D0C3F31303A1F2FF37C90743F480134D
:1031200004D45B0003EBDC734FEA4C0C4FEADC7217
:10313000002602EB43037F104FEA4C0C4FF0160EB3
:1031400034464FF40012A118994202DC5B1A8C1825
:1031500016445B00BEF1010E03EBDC734FEA520232
:103160004FEA4C0CEFD1754620204FF000420AE0A8
:1031700044D04FEADC71013801EB43034FEA4C0CB9
:103180004FEA520243D0A34202EB0E01F0DD0029C8
:1031900001EB020E0ADBA0461B1B614588BF03F151
:1031A000FF33ACEB010C15444446E2E7BEF1000FDF
:1031B000F1DB04F10108EFE725F00042224338D0AB
:1031C000002D4ED129464FEADC22153913464FEA2D
:1031D0004C5C002AF7D0D60250D400205B00DD0200
:1031E000044600F10100F9D51A4663460CFA00FCCA
:1031F000C0F12000C340091B13438AE76145B8D8DA
:10320000002901EB020ED1DB98460023C9E753EAFF
:103210000C0310D168087110F30701F17F5101F51B
:10322000001148BF40F0004001EB0753024643EC59
:10323000102BBDE8F0816A1C16BF681C01364008DF
:10324000E9E710EE102A10EE100A2B46294602F08C
:10325000E7FF22462B4602F02DFE41EC100BBDE8A5
:10326000F08110EE102A2046294602F021FE024687
:103270000B4603F0FFF841EC100BDAE76346202021
:103280004FF0FF34B6E700BF0000F07FB1EEC00A98
:10329000704700BFD0B506460F46144603F0E8FA63
:1032A0000346394630461C60D0BD00BF30B51446D9
:1032B00083B01D4608B103F10043CDE90023DDE9E9
:1032C00000232046294602F0ABFF222203B0BDE8CE
:1032D0003040FFF7DFBF00BF08B500224FF080533A
:1032E000FFF7E4FF41EC100B08BD00BF08B500225A
:1032F0004FF0E043FFF7DAFF41EC100B08BD00BFD1
:1033000051EC100B10EE102A21F0004343EC102B6F
:10331000704700BF82B08DED000B019840F0004077
:1033200000F58010C00F02B0704700BF0000000021
:1033300038B553EC102BC3F30A5104469C4689BBA5
:1033400010EE101A23F0004C5CEA010129D0194656
:1033500000223D4B3D4D10EE100A02F061FFAC42E1
:1033600002460B4616DB8C46C1F30A51363921441E
:1033700040F2FE70814221DC002947DC11F1350F5B
:1033800034DA4CF250318C4218DC002B26A1D1E902
:10339000000144DB24A3D3E9002302F041FF41EC08
:1033A000100B38BD40F2FF708142E0D110EE100AE0
:1033B000194602F07FFD41EC100B38BD002B1CA11B
:1033C000D1E9000107DB1AA3D3E9002302F028FFAB
:1033D00041EC100B38BD18A1D1E9000114A3D3E9C9
:1033E000002302F01DFF41EC100BF3E72CF0FF4C23
:1033F0002CF4E00C36314CEA0153104619460022F9
:10340000134B02F00DFF41EC100B38BD2CF0FF4CBC
:103410002CF4E00C4CEA015343EC102B38BD08A10E
:10342000D1E90001B6E700BF59F3F8C21F6EA5014C
:103430009C7500883CE4377E9C7500883CE437FE30
:1034400059F3F8C21F6EA58100005043B03CFFFF46
:103450000000903C80B487B000AF786039600023F2
:103460007B6100233B610023FB6000237B617CE0E8
:1034700001227B6902FA03F33B613B681B683A69EE
:103480001340FB60FA683B699A426BD13B681B7939
:10349000012B03D03B681B79022B34D17B689A68DF
:1034A0007B695B00032101FA03F3DB431A407B686D
:1034B0009A607B689A683B685B7919467B695B0018
:1034C00001FA03F31A437B689A607B689B889AB27F
:1034D0007B699BB2194601238B409BB2DB439BB2B5
:1034E00013409AB27B689A807B689B889AB23B684B
:1034F0009B7919467B699BB201FA03F39BB2134394
:103500009AB27B689A807B681A687B695B000321AA
:1035100001FA03F3DB431A407B681A607B681A6880
:103520003B681B7919467B695B0001FA03F31A4378
:103530007B681A607B68DA687B699BB25B00032159
:1035400001FA03F3DB431A407B68DA607B68DA68D0
:103550003B68DB7919467B695B0001FA03F31A4388
:103560007B68DA607B6901337B617B690F2B7FF6B7
:103570007FAF00BF00BF1C37BD465DF8047B7047BE
:1035800080B483B000AF78600B467B807A887B681C
:103590009A6100BF0C37BD465DF8047B704780B46C
:1035A00083B000AF78600B467B807B687A881A8591
:1035B00000BF0C37BD465DF8047B704780B483B014
:1035C00000AF78600B467B8013467B707B78002BC6
:1035D00003D07A887B689A6102E07B687A881A85D2
:1035E00000BF0C37BD465DF8047B704780B485B0E2
:1035F00000AF78600B467B8013467B700023FB6036
:103600000023BB607A787B8803F007039B0002FAF3
:1036100003F3FB607B88DB089BB21A467B680832A9
:1036200053F822207B8803F007039B000F2101FA47
:1036300003F3DB437988C90889B2084602EA03012B
:103640007B6800F1080243F822107B88DB089BB2FC
:103650001A467B68083253F82230FA681343BB607D
:103660007B88DB089BB21A467B680832B96843F84E
:10367000221000BF1437BD465DF8047B7047000080
:1036800080B483B000AF7860064A7B6843F0BF63C4
:1036900043F40033D36000BF0C37BD465DF8047BB4
:1036A000704700BF00ED00E080B487B000AF7860E5
:1036B00000237B6100233B610F23FB607B68DB7889
:1036C000002B3AD0284BDB68DB431B0A03F00703CF
:1036D0007B617B69C3F104033B61FA687B6922FA71
:1036E00003F3FB607B685B781A463B6902FA03F3DD
:1036F0007B617B689B781A46FB6813407A691343A9
:103700007B617B691B017B61184A7B681B78796947
:10371000C9B213440A4683F800237B681B7803F080
:103720001F0312497A6812785209D2B21046012258
:1037300002FA03F341F820300FE07B681B7803F0B6
:103740001F030A497A6812785209D2B21046012240
:103750009A4000F1200341F8232000BF1C37BD46EA
:103760005DF8047B704700BF00ED00E000E100E081
:1037700080B48BB000AF786000233B620023FB6114
:103780000023BB6100237B6100233B6100237B623C
:103790000023FB600023BB608B4B5B6803F00C03D2
:1037A0003B623B6A082B11D03B6A082B37D83B6A37
:1037B000002B03D03B6A042B04D030E07B68834AA3
:1037C0001A6030E07B68814A1A602CE07E4B5B68AF
:1037D00003F47013FB617C4B5B6803F48033BB61C3
:1037E000FB699B0C0233FB61BB69002B05D1FB69B4
:1037F000774A02FB03F37B620DE0734BDB6A03F055
:103800000F0301337B61714A7B69B2FBF3F2FB6901
:1038100002FB03F37B627B687A6A1A6003E07B68D1
:103820006A4A1A6000BF684B5B6803F0F0033B62B2
:103830003B6A1B093B62674A3B6A13441B78DBB255
:10384000BB607B681A68BB68DA407B685A605E4B75
:103850005B6803F4E0633B623B6A1B0A3B625D4AC0
:103860003B6A13441B78DBB23B617B685A683B6957
:10387000DA407B689A60544B5B6803F460533B62A8
:103880003B6ADB0A3B62534A3B6A13441B78DBB258
:10389000FB607B685A68FB68DA407B68DA604A4BF9
:1038A000DB6A03F4F8733B623B6A1B093B624A4ADA
:1038B0003B6A32F813309BB23B613B6903F0100363
:1038C000002B06D07A6A3B69B2FBF3F27B681A617F
:1038D00003E07B681A687B681A613B4BDB6A03F480
:1038E00078533B623B6A5B0A3B623B4A3B6A32F875
:1038F00013309BB23B613B6903F01003002B06D0F1
:103900007A6A3B69B2FBF3F27B685A6103E07B6839
:103910001A687B685A612C4B1B6B03F01003102B49
:1039200003D07B68294A9A6103E07B681A687B6848
:103930009A61254B1B6B03F02003202B03D07B687F
:10394000224ADA6103E07B681A687B68DA611E4B01
:103950001B6B03F48073B3F5807F0DD17B681B680C
:103960007A6A9A4208D1FA68BB689A4204D17B6AA3
:103970005A007B681A6203E07B68DA687B681A6227
:10398000114B1B6B03F40073B3F5007F0DD17B6803
:103990001B687A6A9A4208D1FA68BB689A4204D1D5
:1039A0007B6A5A007B685A6203E07B68DA687B684E
:1039B0005A62054B1B6B03F00303002B0ED17B688F
:1039C000DA687B689A6228E00010024000127A00F0
:1039D00000093D0018000020280000206C4B1B6BE4
:1039E00003F00303012B04D17B681A687B689A6299
:1039F00013E0674B1B6B03F00303022B04D17B68BE
:103A00004FF400429A6208E0614B1B6B03F0030322
:103A1000032B02D17B685F4A9A625D4B1B6B03F4F8
:103A20004033002B04D17B689A687B68DA6221E01E
:103A3000574B1B6B03F44033B3F5803F04D17B68D5
:103A40001A687B68DA6215E0514B1B6B03F4403354
:103A5000B3F5003F04D17B684FF40042DA6209E01D
:103A60004B4B1B6B03F44033B3F5403F02D17B68F3
:103A7000484ADA62464B1B6B03F44023002B04D107
:103A80007B689A687B681A6321E0414B1B6B03F4E7
:103A90004023B3F5802F04D17B681A687B681A63D2
:103AA00015E03B4B1B6B03F44023B3F5002F04D10F
:103AB0007B684FF400421A6309E0354B1B6B03F43B
:103AC0004023B3F5402F02D17B68324A1A63304B52
:103AD0001B6B03F44013002B04D17B689A687B684E
:103AE0005A6321E02A4B1B6B03F44013B3F5801F8C
:103AF00004D17B681A687B685A6315E0244B1B6B02
:103B000003F44013B3F5001F04D17B684FF4004267
:103B10005A6309E01E4B1B6B03F44013B3F5401FBF
:103B200002D17B681B4A5A63194B1B6B03F4400399
:103B3000002B04D17B689A687B689A6321E0144B60
:103B40001B6B03F44003B3F5800F04D17B681A6844
:103B50007B689A6315E00E4B1B6B03F44003B3F5CF
:103B6000000F04D17B684FF400429A6309E0084BD0
:103B70001B6B03F44003B3F5400F02D17B68054A89
:103B80009A6300BF2C37BD465DF8047B704700BFC9
:103B90000010024000127A0080B483B000AF786059
:103BA000044A7B68136000BF0C37BD465DF8047B98
:103BB000704700BFD800424280B483B000AF786045
:103BC0000B46FB70FB78002B06D00A4B5A6909495B
:103BD0007B6813434B6106E0064B5A697B68DB4305
:103BE000044913404B6100BF0C37BD465DF8047BB0
:103BF000704700BF0010024080B483B000AF78600F
:103C00000B46FB70FB78002B06D00A4B9A690949DA
:103C10007B6813438B6106E0064B9A697B68DB4344
:103C2000044913408B6100BF0C37BD465DF8047B2F
:103C3000704700BF0010024080B483B000AF7860CE
:103C40000B46FB70FB78002B06D00A4BDA6909495A
:103C50007B681343CB6106E0064BDA697B68DB4384
:103C600004491340CB6100BF0C37BD465DF8047BAF
:103C7000704700BF0010024080B483B000AF78608E
:103C80000B46FB70FB78002B06D00A4BDA6809491B
:103C90007B681343CB6006E0064BDA687B68DB4346
:103CA00004491340CB6000BF0C37BD465DF8047B70
:103CB000704700BF0010024080B483B000AF78604E
:103CC0000B46FB70FB78002B06D00A4B1A6909499A
:103CD0007B6813430B6106E0064B1A697B68DB4384
:103CE000044913400B6100BF0C37BD465DF8047BEF
:103CF000704700BF0010024080B485B000AF78600C
:103D000039600023FB817B681B88FB817B682D4A1F
:103D100093420FD07B682C4A93420BD07B68B3F15F
:103D2000804F07D07B68294A934203D07B68284A9A
:103D3000934208D1FB8923F07003FB813B685A88CA
:103D4000FB891343FB817B68224A93420CD07B683A
:103D5000214A934208D0FB8923F44073FB813B68DE
:103D60001A89FB891343FB817B68FA891A803B68B7
:103D70005A687B68DA623B681A887B681A857B68B8
:103D8000104A93420FD07B680F4A93420BD07B6856
:103D9000124A934207D07B68114A934203D07B6852
:103DA000104A934204D13B689B7A9AB27B681A8688
:103DB0007B6801225A6100BF1437BD465DF8047B61
:103DC000704700BF002C0140003401400004004057
:103DD0000008004000100040001400400040014076
:103DE000004401400048014080B483B000AF7860D7
:103DF0007B684FF0FF325A607B6800221A807B6834
:103E000000221A817B6800225A807B6800229A7205
:103E100000BF0C37BD465DF8047B704780B483B0AB
:103E200000AF78600B46FB70FB78002B08D07B68F6
:103E30001B889BB243F001039AB27B681A8007E0AB
:103E40007B681B889BB223F001039AB27B681A80BF
:103E500000BF0C37BD465DF8047B704780B483B06B
:103E600000AF78600B467B8013467B707B78002B1D
:103E700006D07B68DA687B881A437B68DA6007E0E3
:103E80007B68DB687A88D24392B21A407B68DA603A
:103E900000BF0C37BD465DF8047B704780B584B029
:103EA00000AF0346FB71FB79104A52F82330012121
:103EB0001846FFF781FEFB790D4A32F81330BB60DC
:103EC00001233B730023BB730123FB7303237B7329
:103ED000FB79084A52F8233007F1080211461846C8
:103EE000FFF7B8FA00BF1037BD4680BDCC6A0008A6
:103EF000BC6A00084400002080B483B000AF0346D1
:103F0000FB71FB79074A32F81310FB79064A52F825
:103F100023300A469A6100BF0C37BD465DF8047B2A
:103F2000704700BFBC6A00084400002080B483B022
:103F300000AF0346FB71FA79FB79064951F823304B
:103F4000054931F812201A8500BF0C37BD465DF8CF
:103F5000047B704744000020BC6A000880B588B02C
:103F600000AF03460A46FB711346BB714FF40033A2
:103F700001211846FFF720FE01210120FFF73CFE3A
:103F800000233B770023FB770123BB61FB79184AB1
:103F900052F8233007F1180211461846FFF75AFA73
:103FA000BB79012B1FD1002300221146184600F0D7
:103FB000EDFF00233B6100233B7508237B75012344
:103FC000BB7507F11003184600F080FC06233B7315
:103FD0000F237B730F23BB730123FB7307F10C03C8
:103FE0001846FFF761FB00BF2037BD4680BD00BF0C
:103FF0006400002080B584B000AF78600023FB73BC
:104000000023BB7300F0C0F87B681A787B685B788C
:104010001343DAB27B689B781343DAB27B68DB78B0
:104020001343DAB2FB7B1343DBB2FB737B681A7971
:104030007B685B791343DAB27B689B791343DAB20E
:10404000BB7B1343DBB2BB7307F10F0301222021BB
:10405000184600F031F807F10E030122232118461B
:1040600000F02AF800BF1037BD4680BD80B584B08F
:1040700000AF786007F10F0301222121184600F0FC
:104080004BF8FB7B23F03F03DBB2FB737B681A78B2
:104090007B685B781343DAB2FB7B1343DBB2FB73C1
:1040A00007F10F0301222121184600F005F800BF97
:1040B0001037BD4680BD000080B582B000AF78608B
:1040C0000B46FB7013463B803B88012B03D9FB78E2
:1040D00043F04003FB7008210E48FFF760FAFB78BD
:1040E000184600F0FBF80AE07B681B78184600F0E1
:1040F000F5F83B88013B3B807B6801337B603B8864
:10410000002BF1D108210348FFF73AFA00BF083726
:10411000BD4680BD0010004880B582B000AF786019
:104120000B46FB7013463B803B88012B04D9FB7880
:1041300063F03F03FB7003E0FB7863F07F03FB70E9
:1041400008211048FFF72BFAFB78184600F0C6F854
:104150000CE0002000F0C2F803461A467B681A7093
:104160003B88013B3B807B6801337B603B88002BB5
:10417000EFD108210348FFF703FA00BF0837BD4617
:1041800080BD00BF0010004880B588B000AF01219D
:104190004FF48050FFF730FD01214FF40030FFF75E
:1041A0000BFD01214FF40010FFF706FD01214FF434
:1041B0000010FFF701FD01214FF40010FFF7FCFC98
:1041C000052205214FF09040FFF710FA0522062145
:1041D0004FF09040FFF70AFA052207214FF0904078
:1041E000FFF704FA02233B770023BB770023FB771A
:1041F00003237B772023BB6107F1180319464FF097
:104200009040FFF727F98023BB6107F11803194697
:104210004FF09040FFF71EF94023BB6107F11803F0
:1042200019464FF09040FFF715F92A4800F066FD57
:104230000023BB804FF4E0633B8100237B8100239C
:10424000BB814FF40073FB8110233B8200237B82F0
:104250000723BB824FF48273FB803B1D19461D4828
:1042600000F086FD4FF480511A4800F02CFE012129
:10427000184800F008FE0823BB6101233B770023A8
:10428000BB7703237B7707F1180319461248FFF722
:10429000E1F808211048FFF773F90123BB610023FF
:1042A0003B770023BB7703237B770023FB7707F162
:1042B000180319460848FFF7CDF80223BB6107F140
:1042C000180319460448FFF7C5F800BF2037BD465C
:1042D00080BD00BF003001400010004880B582B0B2
:1042E00000AF0346FB711F4B4FF480521A600BE086
:1042F0001C4B1B685A1E1B490A60002B04D1FEF799
:1043000041F80346DBB228E00221174800F021FE05
:104310000346002BECD0FB791946134800F0EFFD63
:10432000104B4FF480521A600BE00E4B1B685A1E64
:104330000C490A60002B04D1FEF724F80346DBB2D7
:104340000BE00121084800F004FE0346002BECD0EE
:10435000054800F0EAFD034600BF18460837BD4691
:1043600080BD00BF680000200030014080B584B0EF
:1043700000AF78600023FB730023BB7300F0D2F919
:104380007B681A787B685B781343DAB27B689B782A
:104390001343DAB2FB7B1343DBB2FB737B681A79FE
:1043A0007B685B791343DAB27B689B791343DAB29B
:1043B0007B68DB781343DAB2BB7B1343DBB2BB739E
:1043C00007F10F031A462021322000F039F807F1D7
:1043D0000E031A462321322000F032F800BF1037B6
:1043E000BD4680BD80B584B000AF786007F10F0294
:1043F00001232121322000F0D1F8FB7B03F00C03D4
:10440000DBB2FB737B681A787B685B781343DAB2A4
:104410007B68DB781343DAB27B681B791343DAB22B
:10442000FB7B1343DBB2FB7307F10F031A46212119
:10443000322000F005F800BF1037BD4680BD0000F7
:1044400080B584B002AF03463A60FB710B46BB7186
:10445000504B4FF420421A600BE04E4B1B685A1E23
:104460004C490A60002B04D1FDF794FF03469BB230
:104470008CE04FF40041484800F012FC0346002B4A
:10448000EBD1FB7999B24FF4005300934FF0807356
:104490000122414800F0BCFB3E4B4FF420421A6021
:1044A0000BE03C4B1B685A1E3A490A60002B04D1B2
:1044B000FDF770FF03469BB268E00221364800F02A
:1044C000EFFB0346002BECD0BB791946324800F0D5
:1044D000CBFB304B4FF420421A600BE02D4B1B6896
:1044E0005A1E2C490A60002B04D1FDF753FF0346E6
:1044F0009BB24BE08021284800F0D2FB0346002B02
:10450000ECD0FB7999B2002300934FF000730122A5
:10451000214800F07DFB1F4B4FF420421A600BE056
:104520001C4B1B685A1E1B490A60002B04D1FDF767
:1045300031FF03469BB229E00221174800F0B0FB8F
:104540000346002BECD03B681B781946124800F05C
:104550008BFB104B4FF420421A600BE00D4B1B6895
:104560005A1E0C490A60002B04D1FDF713FF0346C5
:104570009BB20BE02021084800F092FB0346002B81
:10458000ECD02021044800F0AAFB0023184608378D
:10459000BD4680BD6C0000200054004080B584B052
:1045A00002AF3A601A460346FB710B46BB711346D5
:1045B000BB805A4B4FF420421A600BE0574B1B68EC
:1045C0005A1E56490A60002B04D1FDF7E3FE03464C
:1045D0009BB29FE04FF40041514800F061FB03465D
:1045E000002BEBD1FB7999B24FF4005300930023D9
:1045F00001224B4800F00CFB484B4FF420421A605C
:104600000BE0464B1B685A1E44490A60002B04D13C
:10461000FDF7C0FE03469BB27CE00221404800F05B
:104620003FFB0346002BECD0BB88012B03D9BB79A1
:1046300063F07F03BB71BB791946394800F014FB66
:10464000364B4FF420421A600BE0344B1B685A1E65
:1046500032490A60002B04D1FDF79CFE03469BB251
:1046600058E040212E4800F01BFB0346002BECD005
:10467000FB7999B2BB88DAB24FF4105300934FF034
:104680000073274800F0C4FA24E0244B4FF4204282
:104690001A600BE0214B1B685A1E20490A60002B50
:1046A00004D1FDF777FE03469BB233E004211C489A
:1046B00000F0F6FA0346002BECD0194800F0E3FABC
:1046C00003461A463B681A703B6801333B60BB885F
:1046D000013BBB80BB88002BD7D1104B4FF420424D
:1046E0001A600BE00D4B1B685A1E0C490A60002B28
:1046F00004D1FDF74FFE03469BB20BE02021084892
:1047000000F0CEFA0346002BECD02021044800F044
:10471000E6FA002318460837BD4680BD6C0000202D
:104720000054004080B58CB000AF01214FF4001060
:10473000FFF782FA01214FF48020FFF73DFA0121B3
:104740004FF40010FFF738FA01214FF40010FFF783
:1047500033FA01214FF40010FFF72EFA042206214C
:104760004148FEF743FF042207213F48FEF73EFF82
:10477000022387F82C30002387F82E30022387F895
:104780002F30032387F82D304023BB6207F1280325
:1047900019463548FEF75EFE8023BB6207F1280309
:1047A00019463148FEF756FE002387F82C300023C7
:1047B00087F82E30002387F82F30032387F82D3019
:1047C0000423BB6207F1280319462848FEF742FE7E
:1047D0000221042000F0DAFB02233B62002387F869
:1047E0002430082387F82530012387F8263007F185
:1047F0002003184600F06AF800233B610023BB60E9
:104800000023FB6000237B610023BB610023FB616D
:10481000174B7B603B1D1946164800F077F90121C4
:10482000144800F0D9F91023BB62002387F82C301C
:10483000002387F82E30032387F82D30002387F8D4
:104840002F3007F1280319460848FEF703FE2023FE
:10485000BB6207F1280319460448FEF7FBFD00BFC1
:104860003037BD4680BD00BF00040048001000483E
:10487000252090000054004080B483B000AF7860E1
:1048800039607B6801221A603B68044A1A6000BFE5
:104890000C37BD465DF8047B704700BF70000020F8
:1048A00080B500AF00F0B4FB044BD3F88830034A66
:1048B00043F47003C2F8883000BF80BD00ED00E013
:1048C00080B500AF00F0EEFB00BF80BD80B485B0C6
:1048D00000AF78600023FB607B4BFB607B689B79BB
:1048E000002B00F0D2807B681B685B0903F100732A
:1048F00003F502635B0119687B681B6803F01F0303
:10490000012202FA03F3DA437B681B685B0903F1B7
:10491000007303F502635B01184601EA02030360BA
:104920007B681B685B095A01684B134419687B68F4
:104930001B6803F01F03012202FA03F3DA437B68CA
:104940001B685B095801614B0344184601EA0203E6
:1049500003607B681B791A467B681B685B095B01F7
:104960001344FA681344FB60FB681A687B681B6891
:1049700003F01F03012101FA03F31946FB680A4300
:104980001A60514BFB607B681B685B095A01504BF6
:10499000134419687B681B6803F01F03012202FAA5
:1049A00003F3DA437B681B685B095801484B0344F7
:1049B000184601EA020303607B681B685B095A0121
:1049C000444B134419687B681B6803F01F030122E2
:1049D00002FA03F3DA437B681B685B0958013D4B1D
:1049E0000344184601EA020303607B685B79102BDD
:1049F00032D17B681B685B095A01354B13441A6836
:104A00007B681B6803F01F03012101FA03F31846BA
:104A10007B681B685B0959012D4B0B44194642EA20
:104A200000030B607B681B685B095A01294B134428
:104A30001A687B681B6803F01F03012101FA03F366
:104A400018467B681B685B095901224B0B441946C9
:104A500042EA00030B6030E07B685B791A467B68B2
:104A60001B685B095B011344FA681344FB60FB6835
:104A70001A687B681B6803F01F03012101FA03F326
:104A80001946FB680A431A6017E07B681B791A46CF
:104A90007B681B685B095B011344FA681344FB6085
:104AA000FB6819687B681B6803F01F03012202FA88
:104AB00003F3DA43FB680A401A6000BF1437BD46AF
:104AC0005DF8047B704700BF00040140040401400E
:104AD000080401400C04014080B483B000AF78604A
:104AE0007B6803F01F03012202FA03F17B685B0974
:104AF0005A01054B13440A461A6000BF0C37BD46E5
:104B00005DF8047B704700BF1404014080B485B099
:104B100000AF786039600023FB607B681B6823F07E
:104B200001027B681A607B681B68FB60FA68294B8E
:104B30001340FB603B685A683B689B681B02134349
:104B4000FA681343FB607B68FA681A603B681B686D
:104B500023F070627B681A617B681B6843F0010276
:104B60007B681A600023FB607B68FA689A607B6848
:104B7000FA68DA603B689A693B681B691343FB601B
:104B80007B68FA689A607B689B6843F400427B68A4
:104B90009A603B68DB68FB607B681A68FB681A43B5
:104BA0007B681A607B685B68FB60FB6823F0784376
:104BB00023F40043FB603B685B69FA681343FB60C6
:104BC0007B68FA685A6000BF1437BD465DF8047B05
:104BD000704700BFFFE0CF0080B483B000AF7860C3
:104BE0000B46FB70FB78002B06D07B681B6843F0FC
:104BF00001027B681A6005E07B681B6823F00102F4
:104C00007B681A6000BF0C37BD465DF8047B7047B7
:104C100080B487B000AFF8607B600B467B811346A1
:104C20007B7200237B61FB685B687B617A690D4B5B
:104C300013407B617B89C3F309027B7A1B0403F475
:104C40007F031A437B681A433B6A13437A69134311
:104C50007B61FB687A695A6000BF1C37BD465DF80E
:104C6000047B7047009800FC80B483B000AF78608C
:104C70000B46FB70FA787B689A6200BF0C37BD4622
:104C80005DF8047B704780B483B000AF78607B68C8
:104C90005B6ADBB218460C37BD465DF8047B704793
:104CA00080B485B000AF786039600023BB6000231A
:104CB000FB737B689B69BB60BA683B681340BB6051
:104CC000BB68002B02D00123FB7301E00023FB73C0
:104CD000FB7B18461437BD465DF8047B704780B4F3
:104CE00083B000AF786039607B683A68DA6100BFF2
:104CF0000C37BD465DF8047B7047000080B582B07C
:104D000000AF78607B68174A93420AD101214FF4C3
:104D10008050FEF7B1FF00214FF48050FEF7ACFF4A
:104D20001CE07B68104A93420AD101214FF4804075
:104D3000FEF7C2FF00214FF48040FEF7BDFF0DE0FB
:104D40007B680A4A934209D101214FF40040FEF7E3
:104D5000B3FF00214FF40040FEF7AEFF00BF08375D
:104D6000BD4680BD0030014000380040003C00409E
:104D700080B485B000AF786039600023FB813B6868
:104D80005B88B3F5827F36D17B681B88FB81FB890A
:104D900003F44153FB813B681A883B685B881343EB
:104DA0009AB23B68D9883B681B890B4399B23B6830
:104DB00058893B689B89034398B23B68DB8903436E
:104DC0009BB20B439BB213439AB2FB891343FB8103
:104DD0007B68FA891A807B689B88FB81FB8923F4B6
:104DE0007063FB813B689A88FB891343FB817B6876
:104DF000FA899A8035E07B689B88FB81FB8923F4E4
:104E00007063FB813B689A88FB891343FB817B6855
:104E1000FA899A807B681B88FB81FB8903F44153E4
:104E2000FB813B681A883B685B8813439AB23B68F6
:104E3000D9883B681B890B4399B23B6858893B680A
:104E40009B89034398B23B68DB8903439BB20B43C6
:104E50009BB213439AB2FB891343FB817B68FA89A7
:104E60001A807B689B8B9BB223F400639AB27B68A9
:104E70009A833B681A8A7B681A8200BF1437BD4642
:104E80005DF8047B704780B483B000AF78600B4658
:104E9000FB70FB78002B08D07B681B889BB243F02B
:104EA00040039AB27B681A8007E07B681B889BB23C
:104EB00023F040039AB27B681A8000BF0C37BD46CE
:104EC0005DF8047B704780B483B000AF78600B4618
:104ED0007B807B689B889BB223F480539AB27B686B
:104EE0009A807B689B889AB27B8813439AB27B68CE
:104EF0009A8000BF0C37BD465DF8047B704780B4D4
:104F000085B000AF78600B46FB700023FB607B68C8
:104F1000FB60FB680C33FB60FB68FA781A7000BF1B
:104F20001437BD465DF8047B704780B485B000AF90
:104F300078600023FB607B68FB60FB680C33FB60E0
:104F4000FB681B78DBB218461437BD465DF8047B5E
:104F5000704780B485B000AF78600B467B8000233B
:104F6000FB737B681B899AB27B8813409BB2002B32
:104F700002D00123FB7301E00023FB73FB7B184687
:104F80001437BD465DF8047B7047000080B485B0DF
:104F900000AF03460A46FB711346BB710023FB605A
:104FA000BB7903F003039B000F2202FA03F3FB60BB
:104FB000164ABB799B08DBB2023352F82320FB6808
:104FC000DB431248B9798908C9B21A408B1C40F8F2
:104FD00023200E4ABB799B08DBB2023352F8232010
:104FE000F979BB7903F003039B0001FA03F3074847
:104FF000B9798908C9B21A438B1C40F8232000BF35
:105000001437BD465DF8047B704700BF00000140C7
:1050100080B500AF1F4BD3F888301E4A43F47003AD
:10502000C2F888301C4B1B681B4A43F00103136015
:10503000194B5A681849194B13404B60164B1B68A3
:10504000154A23F0847323F480331360124B1B68DA
:10505000114A23F4802313600F4B5B680E4A23F43C
:10506000FE0353600C4BDB6A0B4A23F00F03D36241
:10507000094B1A6B08490A4B13400B63064B00227D
:105080009A6000F081F8034B4FF000629A6000BF15
:1050900080BD00BF00ED00E0001002400CC07FF8B2
:1050A000CCFC00FF80B485B000AF0023FB60002380
:1050B000BB6000237B6000233B602E4B5B6803F0EA
:1050C0000C03FB60FB68082B11D0FB68082B36D85B
:1050D000FB68002B03D0FB68042B04D02FE0264B89
:1050E000264A1A602FE0244B244A1A602BE0214BF9
:1050F0005B6803F47013BB601E4B5B6803F4803382
:105100007B60BB689B0C0233BB607B68002B06D1C5
:10511000BB681B4A02FB03F3174A136013E0154BED
:10512000DB6A03F00F0301333B60144A3B68B2FBB8
:10513000F3F3BA6802FB03F30F4A136003E00E4B6C
:105140000E4A1A6000BF0B4B5B681B0903F00F038C
:105150000C4AD35CDBB2FB60074B1A68FB6822FA8F
:1051600003F3054A136000BF1437BD465DF8047BA6
:10517000704700BF001002407800002000127A0043
:1051800000093D007C00002080B483B000AF002304
:105190007B6000233B60334B1B68324A43F480330F
:1051A0001360304B1B6803F400333B607B680133B2
:1051B0007B603B68002B03D17B68B3F5A06FF0D117
:1051C000284B1B6803F40033002B02D001233B6003
:1051D00001E000233B603B68012B3CD1224B1222B3
:1051E0001A60204B1F4A5B6853601E4B1D4A5B6868
:1051F00053601C4B5B681B4A43F480635360194B3C
:105200005B68184A23F47C135360164B5B68154A9D
:1052100043F4E8135360134B1B68124A43F0807346
:10522000136000BF0F4B1B6803F00073002BF9D015
:105230000C4B5B680B4A23F003035360094B5B681C
:10524000084A43F00203536000BF064B5B6803F05B
:105250000C03082BF9D100BF0C37BD465DF8047B69
:10526000704700BF001002400020024080B483B0AD
:1052700000AF7860FEE7000080B582B000AF01218A
:105280004FF08050FEF7D8FC01210120FEF7B4FC5E
:1052900001214FF40010FEF78FFC01214FF4003084
:1052A000FEF78AFC4FF400633B6003237B7102230B
:1052B0003B710023BB710223FB713B4619464FF043
:1052C0009040FEF7C7F801214FF40030FEF774FC60
:1052D0004FF480533B600123FB713B4619464FF06E
:1052E0009040FEF7B7F80E220B214FF09040FEF7EA
:1052F0007DF90E220C214FF09040FEF777F9012145
:105300000020FEF72BFE1220FFF7E6FB0A4B1222CD
:105310001A60094B00221A71074B08225A71064B7A
:1053200001229A710448FFF7D1FA0020FFF7D4FB5D
:1053300000BF0837BD4680BD3C13002080B500AFDC
:105340000020FEF729FC01214FF40000FEF774FC59
:1053500000BF80BD80B582B000AF4FF4A060FEF703
:105360008FF914233B7102237B710023BB7101234E
:10537000FB713B1D1846FEF797F92A233B71012369
:105380007B710123FB713B1D1846FEF78DF9062347
:105390003B7100237B713B1D1846FEF785F900BF6A
:1053A0000837BD4680BD000080B582B000AF03461F
:1053B000FB71FB79002B05D04FF480410648FEF7C6
:1053C000EEF804E04FF480410348FEF7D9F800BF3F
:1053D0000837BD4680BD00BF0010004880B584B0CE
:1053E00000AF0F4B1B68FB600E4B1B68BB600E4B86
:1053F0001B687B60FA687B681344FB60FB68002BCA
:1054000009D008220949F86800F014F80422084974
:10541000B86800F00FF800BF1037BD4680BD00BF70
:10542000ACF7FF1FB0F7FF1FB4F7FF1F2A010020E2
:105430003A01002080B487B000AFF860B96013462D
:10544000FB710023FB750023FB7527E0FB681B0F36
:10545000092B0BD8FB681B0FDAB2FB7D5B001946EA
:10546000BB680B443032D2B21A700AE0FB681B0FE3
:10547000DAB2FB7D5B001946BB680B443732D2B20F
:105480001A70FB681B01FB60FB7D5B000133BA688F
:10549000134400221A70FB7D0133FB75FA7DFB7902
:1054A0009A42D3D300BF00BF1C37BD465DF8047BD2
:1054B0007047000080B582B000AF78600B46FB708B
:1054C000FB783F2B14D80D4B00221A60FB789BB25F
:1054D0001A46C021786800F07AFCFB789BB2194626
:1054E000012000F08DFB012000F0CEFA012300E046
:1054F000002318460837BD4680BD00BF4413002076
:1055000080B582B000AF0120FFF74EFF0123FB8082
:105510000C4AFB8813600C4B00221A800A4B1A8835
:10552000084B1A60094B00221A60074B4FF4E052F7
:105530001A80054B1A88034B1A6000231846083757
:10554000BD4680BD405C004054130020445C0040D8
:1055500080B500AF094B0A4A1A60084B1B6802224B
:105560001A72084B084A1A60084B094A1A60054B20
:105570001B681B68984700BF80BD00BF4C1300200C
:1055800058130020501300209800002074130020AE
:10559000CC00002080B500AFFFF720FF064B1B6852
:1055A00000229A72FFF7ACFF00F08EFB034B002243
:1055B0001A6000BF80BD00BF4C13002048130020BC
:1055C00080B500AF374B1B6800229A72354B1B68C1
:1055D000354AD2795A72334B1B680022DA720020A6
:1055E00000F0A6F94FF40071002000F0B5F9102189
:1055F000002000F0D9F94021002000F0DFFA8021DE
:10560000002000F0B9FA002000F092FA274B93F83E
:1056100030309BB21946002000F012FB002000F051
:105620005DFA0021012000F097F9C021012000F06F
:10563000A3FA2021012000F0B7F90021012000F099
:10564000EBF94FF4C061022000F086F94FF480714D
:10565000022000F091FA0021022000F0DDF9202163
:10566000022000F0A1F90021032000F075F94FF4A9
:105670008871032000F0A2FA4021032000F0E0FA34
:105680004FF44051032000F0C7F90021032000F03F
:105690008BF9002000F056FB054B01221A6000BF79
:1056A00080BD00BF4C130020006B00089800002054
:1056B0004813002080B483B000AF074B7B607B6849
:1056C0009B7A002B02D0054B05221A6000BF0C37D5
:1056D000BD465DF8047B7047581300204813002036
:1056E00080B400AF034B04221A6000BFBD465DF8D2
:1056F000047B70474813002080B400AF054B1B7833
:10570000202B02D1034B00221A7000BFBD465DF86A
:10571000047B70477813002080B400AF00BFBD4603
:105720005DF8047B7047000080B584B000AF03468D
:10573000FB710023FB60FB79212B09D1164B1B6801
:105740001B7803F07F03212B11D1144BFB600EE07B
:10575000FB79202B0BD1104B1B681B7803F07F03C8
:10576000212B01D10E4BFB600E4B20221A70FB68DF
:10577000002B01D102230BE0074B1B68FA689A61EA
:10578000054B1B6800225A82FB68002098470023C3
:1057900018461037BD4680BD4C130020C95800087C
:1057A000FD5800087813002080B483B000AF034692
:1057B000FB710C4B1B681B7803F07F03212B09D175
:1057C000FB79022B01D1002305E0FB79222B01D1CB
:1057D000002300E0022318460C37BD465DF8047B29
:1057E000704700BF4C13002080B582B000AF034665
:1057F000FB80FB880449184600F080FA03461846EF
:105800000837BD4680BD00BFF000002080B582B0E3
:1058100000AF0346FB80FB880449184600F06EFA8F
:10582000034618460837BD4680BD00BFF80000207B
:1058300080B584B000AF0346FB800B4B1B68DB7860
:10584000FB73FB7B042B01D9002309E0FB7BDB000E
:10585000064A1A44FB881146184600F04FFA0346E0
:1058600018461037BD4680BD4C13002008010020AB
:1058700080B582B000AF0346FB80FB880449184620
:1058800000F03CFA034618460837BD4680BD00BF0D
:105890000001002080B483B000AF03460A46FB71CC
:1058A0001346BB71BB79002B01D0022305E0FB79C5
:1058B000012B01D9022300E0002318460C37BD4616
:1058C0005DF8047B7047000080B483B000AF0346EE
:1058D000FB80FB88002B05D1064B1B6808221A822F
:1058E000002300E0044B18460C37BD465DF8047BEE
:1058F000704700BF4C1300208C00002080B483B0A0
:1059000000AF0346FB80FB88002B05D1064B1B68CC
:1059100008221A82002300E0044B18460C37BD46CB
:105920005DF8047B704700BF4C1300208C00002002
:1059300080B483B000AF0346FB80FA8805494FF678
:10594000F87313400B6000BF0C37BD465DF8047B55
:10595000704700BF505C004080B483B000AF034686
:105960000A46FB711346BB80FB799B0003F1804321
:1059700003F5B8431B681BB223F4EC4323F0700318
:105980001AB2B7F9043013431BB29AB2FB799B00E9
:1059900003F1804303F5B8431A6000BF0C37BD46DE
:1059A0005DF8047B7047000090B482B000AF0346FE
:1059B0000A46FB711346BB80FB799B0003F18043D1
:1059C00003F5B8431B689BB223F4E04323F0400384
:1059D0009CB2BB8803F010039BB2002B02D084F072
:1059E00010039CB2BB8803F020039BB2002B02D0B3
:1059F00084F020039CB2074B23439AB2FB799B00AF
:105A000003F1804303F5B8431A6000BF0837BD4671
:105A100090BC70478080FFFF90B482B000AF034617
:105A20000A46FB711346BB80FB799B0003F1804360
:105A300003F5B8431B689BB223F4804323F0700343
:105A40009CB2BB8803F480539BB2002B02D084F439
:105A500080539CB2BB8803F400539BB2002B02D04E
:105A600084F400539CB2074B23439AB2FB799B000A
:105A700003F1804303F5B8431A6000BF0837BD4601
:105A800090BC70478080FFFF90B482B000AF0346A7
:105A9000FB71FB799B0003F1804303F5B8431B685E
:105AA0009BB223F4E04323F040039CB284F0100344
:105AB0009CB284F020039CB2074B23439AB2FB793B
:105AC0009B0003F1804303F5B8431A6000BF083719
:105AD000BD4690BC704700BF8080FFFF90B482B08D
